:020000040800F2
:1000000000000120491800083916000841160008B0
:100010004916000851160008591600080000000093
:100020000000000000000000000000006116000851
:100030006F160008000000007D1600088B160008EF
:1000400099180008991800089918000899180008CC
:1000500099180008991800089918000899180008BC
:1000600099180008991800089918000899180008AC
:10007000991800089918000899180008991800089C
:100080009918000899180008991800080000000045
:1000900000000000000000000000000099180008A7
:1000A000991800089918000899180008991800086C
:1000B000991800089918000899180008991800085C
:1000C000991800089918000899180008991800084C
:1000D00099180008991800089918000800000000F5
:1000E00099180008991800089918000800000000E5
:1000F0000000000000000000000000009918000847
:1001000000000000991800089918000899180008C4
:1001100000000000000000000000000000000000DF
:1001200099180008991800089918000899180008EB
:100130009918000800000000000000000000000006
:1001400000000000000000000000000099180008F6
:1001500099180008991800089918000899180008BB
:10016000991800089918000800000000000000001D
:10017000000000000000000000000000000000007F
:1001800000000000991800080000000000000000B6
:0401900099180008B2
:1001A00010B5054C237833B9044B13B10448AFF3B1
:1001B00000800123237010BDD40100200000000046
:1001C0000067000808B5034B1BB103490348AFF3B0
:1001D000008008BD00000000D80100200067000872
:1001E00001F0FF01102A2BDB10F0070F08D010F8E8
:1001F000013B013A8B422DD010F0070F42B3F6D1EC
:10020000F0B441EA012141EA014122F007047FF004
:1002100000070023F0E80256083C85EA010586EA5B
:10022000010685FA47F5A3FA87F586FA47F6A5FA97
:1002300087F68EB9EED1F0BC01F0FF0102F00702A3
:1002400032B110F8013B013A83EA010313B1F8D14E
:100250000020704701387047002D06BF354603382F
:10026000073815F0010F07D1013015F4807F02BF68
:10027000013015F4C03F0130F0BC0138704700BFB9
:10028000034613F8012B002AFBD1181A01387047D6
:1002900081F0004102E000BF83F0004330B54FEA37
:1002A00041044FEA430594EA050F08BF90EA020FA4
:1002B0001FBF54EA000C55EA020C7FEA645C7FEA37
:1002C000655C00F0E2804FEA5454D4EB5555B8BF5A
:1002D0006D420CDD2C4480EA020281EA030382EACB
:1002E000000083EA010180EA020281EA0303362D5D
:1002F00088BF30BD11F0004F4FEA01314FF4801C30
:100300004CEA113102D0404261EB410113F0004F41
:100310004FEA03334CEA133302D0524263EB4303F8
:1003200094EA050F00F0A780A4F10104D5F1200E96
:100330000DDB02FA0EFC22FA05F2801841F10001F1
:1003400003FA0EF2801843FA05F359410EE0A5F1C5
:1003500020050EF1200E012A03FA0EFC28BF4CF0F6
:10036000020C43FA05F3C01851EBE37101F00045AC
:1003700007D54FF0000EDCF1000C7EEB00006EEBB9
:100380000101B1F5801F1BD3B1F5001F0CD3490843
:100390005FEA30004FEA3C0C04F101044FEA44529A
:1003A00012F5800F80F09A80BCF1004F08BF5FEA21
:1003B000500C50F1000041EB045141EA050130BD01
:1003C0005FEA4C0C404141EB0101013C28BFB1F513
:1003D000801FE9D291F0000F04BF01460020B1FA5E
:1003E00081F308BF2033A3F10B03B3F120020CDA31
:1003F0000C3208DD02F1140CC2F10C0201FA0CF00F
:1004000021FA02F10CE002F11402D8BFC2F1200C73
:1004100001FA02F120FA0CFCDCBF41EA0C01904029
:10042000E41AA2BF01EB0451294330BD6FEA040472
:100430001F3C1CDA0C340EDC04F11404C4F120025D
:1004400020FA04F001FA02F340EA030021FA04F36F
:1004500045EA030130BDC4F10C04C4F1200220FAC6
:1004600002F001FA04F340EA0300294630BD21FA04
:1004700004F0294630BD94F0000F83F4801306BFCA
:1004800081F480110134013D4EE77FEA645C18BFBE
:100490007FEA655C29D094EA050F08BF90EA020F55
:1004A00005D054EA000C04BF1946104630BD91EA4D
:1004B000030F1EBF0021002030BD5FEA545C05D150
:1004C0004000494128BF41F0004130BD14F580048F
:1004D0003CBF01F5801130BD01F0004545F0FE4103
:1004E00041F470014FF0000030BD7FEA645C1ABF38
:1004F000194610467FEA655C1CBF0B46024650EA6F
:10050000013406BF52EA033591EA030F41F400219A
:1005100030BD00BF90F0000F04BF0021704730B520
:100520004FF4806404F132044FF000054FF00001F5
:1005300050E700BF90F0000F04BF0021704730B5B6
:100540004FF4806404F1320410F0004548BF40428B
:100550004FF000013EE700BF42004FEAE2014FEAE0
:1005600031014FEA02701FBF12F07F4393F07F4FBB
:1005700081F06051704732F07F4208BF704793F0BE
:100580007F4F04BF41F40021704730B54FF46074D1
:1005900001F0004521F000411CE700BF50EA0102D4
:1005A00008BF704730B54FF000050AE050EA01027D
:1005B00008BF704730B511F0004502D5404261EBED
:1005C00041014FF4806404F132045FEA915C3FF42E
:1005D000D8AE4FF003025FEADC0C18BF03325FEACB
:1005E000DC0C18BF033202EBDC02C2F1200300FA7C
:1005F00003FC20FA02F001FA03FE40EA0E0021FAA1
:1006000002F11444BDE600BF70B54FF0FF0C4CF48E
:10061000E06C1CEA11541DBF1CEA135594EA0C0F40
:1006200095EA0C0F00F0DEF82C4481EA030621EA7B
:100630004C5123EA4C5350EA013518BF52EA0335B6
:1006400041F4801143F4801338D0A0FB02CE4FF068
:100650000005E1FB02E506F00042E0FB03E54FF098
:100660000006E1FB03569CF0000F18BF4EF0010E90
:10067000A4F1FF04B6F5007F64F5407404D25FEA8C
:100680004E0E6D4146EB060642EAC62141EA55513F
:100690004FEAC52040EA5E504FEACE2EB4F1FD0C81
:1006A00088BFBCF5E06F1ED8BEF1004F08BF5FEAFF
:1006B000500E50F1000041EB045170BD06F00046B1
:1006C00046EA010140EA020081EA0301B4EB5C045E
:1006D000C2BFD4EB0C0541EA045170BD41F4801156
:1006E0004FF0000E013C00F3AB8014F1360FDEBF7B
:1006F000002001F0004170BDC4F10004203C35DA57
:100700000C341BDC04F11404C4F1200500FA05F3D9
:1007100020FA04F001FA05F240EA020001F000427A
:1007200021F0004110EBD37021FA04F642EB0601F0
:100730005EEA430E08BF20EAD37070BDC4F10C041A
:10074000C4F1200500FA04F320FA05F001FA04F2DE
:1007500040EA020001F0004110EBD37041F10001CA
:100760005EEA430E08BF20EAD37070BDC4F12005D5
:1007700000FA05F24EEA020E20FA04F301FA05F23D
:1007800043EA020321FA04F001F0004121FA04F2E5
:1007900020EA020000EBD3705EEA430E08BF20EAB5
:1007A000D37070BD94F0000F0FD101F000464000EF
:1007B00041EB010111F4801F08BF013CF7D041EA71
:1007C000060195F0000F18BF704703F00046520075
:1007D00043EB030313F4801F08BF013DF7D043EA46
:1007E0000603704794EA0C0F0CEA135518BF95EAFC
:1007F0000C0F0CD050EA410618BF52EA4306D1D183
:1008000081EA030101F000414FF0000070BD50EAA1
:10081000410606BF1046194652EA430619D094EA2B
:100820000C0F02D150EA013613D195EA0C0F05D115
:1008300052EA03361CBF104619460AD181EA030169
:1008400001F0004141F0FE4141F470014FF0000021
:1008500070BD41F0FE4141F4780170BD70B54FF0BC
:10086000FF0C4CF4E06C1CEA11541DBF1CEA13553C
:1008700094EA0C0F95EA0C0F00F0A7F8A4EB05041E
:1008800081EA030E52EA03354FEA013100F0888015
:100890004FEA03334FF0805545EA131343EA1263DE
:1008A0004FEA022245EA111545EA10654FEA002693
:1008B0000EF000419D4208BF964244F1FD0404F54C
:1008C000407402D25B084FEA3202B61A65EB0305A8
:1008D0005B084FEA32024FF480104FF4002CB6EB65
:1008E000020E75EB030E22BFB61A754640EA0C00E5
:1008F0005B084FEA3202B6EB020E75EB030E22BF25
:10090000B61A754640EA5C005B084FEA3202B6EB65
:10091000020E75EB030E22BFB61A754640EA9C0024
:100920005B084FEA3202B6EB020E75EB030E22BFF4
:10093000B61A754640EADC0055EA060E18D04FEAB2
:10094000051545EA16754FEA06164FEAC30343EA52
:1009500052734FEAC2025FEA1C1CC0D111F4801F1F
:100960000BD141EA00014FF000004FF0004CB6E718
:1009700011F4801F04BF01430020B4F1FD0C88BFB7
:10098000BCF5E06F3FF6AFAEB5EB030C04BFB6EBC2
:10099000020C5FEA500C50F1000041EB045170BDB5
:1009A0000EF0004E4EEA113114EB5C04C2BFD4EBE2
:1009B0000C0541EA045170BD41F480114FF0000E66
:1009C000013C90E645EA060E8DE60CEA135594EAE2
:1009D0000C0F08BF95EA0C0F3FF43BAF94EA0C0FE5
:1009E0000AD150EA01347FF434AF95EA0C0F7FF45A
:1009F00025AF104619462CE795EA0C0F06D152EAAE
:100A000003353FF4FDAE1046194622E750EA410691
:100A100018BF52EA43067FF4C5AE50EA41047FF4A2
:100A20000DAF52EA43057FF4EBAE12E74FF0FF3C07
:100A300006E000BF4FF0010C02E000BF4FF0010CD8
:100A40004DF804CD4FEA410C7FEA6C5C4FEA430C51
:100A500018BF7FEA6C5C1BD001B050EA410C0CBFA0
:100A600052EA430C91EA030F02BF90EA020F002002
:100A7000704710F1000F91EA030F58BF994208BF69
:100A800090422CBFD8176FEAE37040F00100704726
:100A90004FEA410C7FEA6C5C02D150EA013C07D17D
:100AA0004FEA430C7FEA6C5CD6D152EA033CD3D0C8
:100AB0005DF8040B704700BF8446104662468C46C2
:100AC0001946634600E000BF01B5FFF7B7FF0028F5
:100AD00048BF10F1000F01BD4DF808EDFFF7F4FF1E
:100AE0000CBF012000205DF808FB00BF4DF808EDA9
:100AF000FFF7EAFF34BF012000205DF808FB00BFCC
:100B00004DF808EDFFF7E0FF94BF012000205DF8ED
:100B100008FB00BF4DF808EDFFF7CEFF94BF0120A2
:100B200000205DF808FB00BF4DF808EDFFF7C4FF9B
:100B300034BF012000205DF808FB00BF4FEA410CE4
:100B40007FEA6C5C02D150EA013C0AD14FEA430CC7
:100B50007FEA6C5C02D152EA033C02D14FF0000004
:100B600070474FF0010070474FEA410212F5001242
:100B700015D211D56FF47873B3EB625212D94FEAE4
:100B8000C12343F0004343EA505311F0004F23FACE
:100B900002F018BF404270474FF00000704750EA23
:100BA000013005D111F0004008BF6FF000407047E0
:100BB0004FF00000704700BF53B94AB9002908BF81
:100BC00000281CBF4FF0FF314FF0FF3000F088B914
:100BD000ADF1080C6DE904CE00F006F8DDF804E094
:100BE000DDE9022304B070472DE9F047089D8E46E9
:100BF00004468846002B4AD18A42174662D9B2FA87
:100C000082F64EB1C6F1200301FA06F820FA03F38A
:100C1000B74043EA0808B4404FEA174E1FFA87FC72
:100C2000B8FBFEF1230C0EFB118843EA084301FBDD
:100C30000CF29A4209D9FB1801F1FF3080F0EA80EA
:100C40009A4240F2E78002393B449A1AA3B2B2FBBF
:100C5000FEF00EFB102243EA024300FB0CFC9C4515
:100C600009D9FB1800F1FF3280F0D6809C4540F294
:100C7000D3803B44023840EA0140A3EB0C0300213F
:100C80001DB1F3400022C5E90032BDE8F0878B4278
:100C900005D90DB1C5E9000100210846F5E7B3FA11
:100CA00083F1002946D1734502D3824200F20581C7
:100CB000841A6EEB030201209046002DE5D0C5E9B1
:100CC0000048E2E7002A00F09080B2FA82F6002E97
:100CD00040F0A4808A1A030C4FEA174E80B2BCB2CF
:100CE0000121B2FBFEFC0EFB1C2243EA024304FB83
:100CF0000CF29A4207D9FB180CF1FF3802D29A4243
:100D000000F2E080C4469B1AB3FBFEF20EFB1233E6
:100D100040EA034302FB04F49C4207D9FB1802F1AA
:100D2000FF3002D29C4200F2CA8002461B1B42EAFC
:100D30000C40A5E7C1F120068B4022FA06F71F43BD
:100D40000EFA01F420FA06F32EFA06FE4FEA1749CE
:100D5000234300FA01F81FFA87FCBEFBF9F01C0CD4
:100D600009FB10EE44EA0E4400FB0CFEA64502FA15
:100D700001F209D93C1900F1FF3A80F09C80A645A8
:100D800040F2998002383C44A4EB0E041FFA83FE23
:100D9000B4FBF9F309FB13444EEA044403FB0CFCD7
:100DA000A44508D93C1903F1FF3E80F08280A44598
:100DB0007FD9023B3C4443EA0040A4EB0C04A0FB77
:100DC00002EC64457346E14662D35FD05DB1B8EB97
:100DD000030264EB090404FA06F622FA01F31E4347
:100DE000CC40C5E9006400214FE7B1FBF2FC010CE7
:100DF00041EA0E4180B240EA01423B4638463C4659
:100E0000B846BE462026B1FBF7F1A2EB080241EA44
:100E10000C4166E7014618E710462CE7C6F12002B0
:100E20002EFA02F3B740B14020FA02F24FEA174E11
:100E30000A43B3FBFEF8BCB20EFB1833110C41EAB7
:100E4000034108FB04F9B04089454FEA104380B2E2
:100E50003ED9791808F1FF3C01D289451FD8A1EB92
:100E60000901B1FBFEF909FB04F80EFB191192B25E
:100E700042EA0142424529D2BA1809F1FF31C4D2EF
:100E80004245C2D2A9F102013A44BEE7F0459DD2E3
:100E9000BEEB02036CEB070C0138E14696E7A7EBCB
:100EA00009094944A8F1020CB1FBFEF909FB04F859
:100EB000DBE773467FE7504666E70846FDE63B44BE
:100EC000023A33E7ACF1020C3B441CE749469CE78D
:100ED000A1EB0901C446B1FBFEF909FB04F8C4E724
:100EE000704700BF80B586B002AF0346FB71FB7947
:100EF00023F00F03FB73FB791B01BB73FB7B43F0F8
:100F00000C03DBB23B72FB7B43F00803DBB27B726A
:100F1000BB7B43F00C03DBB2BB72BB7B43F008032B
:100F2000DBB2FB7207F108026423009304234E2115
:100F3000034801F0F7F800BF1037BD4680BD00BF81
:100F4000F001002080B586B002AF0346FB71FB794B
:100F500023F00F03FB73FB791B01BB73FB7B43F097
:100F60000D03DBB23B72FB7B43F00903DBB27B7208
:100F7000BB7B43F00D03DBB2BB72BB7B43F00903C9
:100F8000DBB2FB7207F108026423009304234E21B5
:100F9000034801F0C7F800BF1037BD4680BD00BF51
:100FA000F001002080B500AF322000F0E9FC3020D5
:100FB000FFF798FF052000F0E3FC3020FFF792FFD9
:100FC000012000F0DDFC3020FFF78CFF0A2000F04C
:100FD000D7FC2020FFF786FF0A2000F0D1FC282054
:100FE000FFF780FF012000F0CBFC0820FFF77AFF1D
:100FF000012000F0C5FC0120FFF774FF012000F084
:10100000BFFC012000F0BCFC0620FFF76BFF0120B5
:1010100000F0B6FC0C20FFF765FF00BF80BD80B577
:1010200082B000AF786006E07B685A1C7A601B785B
:101030001846FFF787FF7B681B78002BF4D100BFB1
:1010400000BF0837BD4680BD80B586B004AF4FF401
:101050007A73029301230193FB1D009301237522F0
:10106000D021234801F056FAFB79682B3BD10023AD
:10107000BB714FF47A73029301230193BB1D00935C
:1010800001236B22D0211A4801F04AF90723BB71D2
:101090004FF47A73029301230193BB1D0093012344
:1010A0001922D021124801F03BF90023BB714FF403
:1010B0007A73029301230193BB1D009301231B222A
:1010C000D0210B4801F02CF90023BB714FF47A7347
:1010D000029301230193BB1D009301231C22D02105
:1010E000034801F01DF900BF0837BD4680BD00BFB1
:1010F000F001002080B586B004AF4FF47A730293FC
:10110000062301933B46009301233B22D02127482D
:1011100001F000FA3B781BB21B021AB27B781BB2BB
:1011200013431AB2224B1A80BB781BB21B021AB2AD
:10113000FB781BB213431AB21E4B1A803B791BB2C9
:101140001B021AB27B791BB213431AB21A4B1A80D4
:10115000174BB3F9003007EE903AB8EEE77ADFEDBF
:10116000176AC7EE267A164BC3ED007A114BB3F916
:10117000003007EE903AB8EEE77ADFED106AC7EE7E
:10118000267A104BC3ED007A0B4BB3F9003007EE13
:10119000903AB8EEE77ADFED096AC7EE267A0A4B95
:1011A000C3ED007A00BF0837BD4680BDF0010020C6
:1011B0004402002046020020480200200000804631
:1011C00050020020540200205802002080B586B052
:1011D00004AF4FF47A730293062301933B460093C6
:1011E00001234322D021274801F094F93B781BB218
:1011F0001B021AB27B781BB213431AB2224B1A801D
:10120000BB781BB21B021AB2FB781BB213431AB293
:101210001E4B1A803B791BB21B021AB27B791BB2A0
:1012200013431AB21A4B1A80174BB3F9003007EE6A
:10123000903AB8EEE77ADFED176AC7EE267A164BDA
:10124000C3ED007A114BB3F9003007EE903AB8EED7
:10125000E77ADFED106AC7EE267A104BC3ED007A0D
:101260000B4BB3F9003007EE903AB8EEE77ADFEDBA
:10127000096AC7EE267A0A4BC3ED007A00BF083729
:10128000BD4680BDF00100204A0200204C02002033
:101290004E020020000003435C0200206002002098
:1012A0006402002080B586B000AF00F0F7FA00F0CD
:1012B000A5F800F031F900F001F9FFF773FEFFF730
:1012C000C3FEDA20FFF70EFE3E48FFF7A8FEFFF749
:1012D00011FFFFF77BFF8020FFF704FE3A4B1B68EE
:1012E0001846FFF739F902460B46381D374903F017
:1012F000D5F83B1D1846FFF792FEC020FFF7F2FD20
:10130000334B1B681846FFF727F902460B46381D7A
:10131000304903F0C3F83B1D1846FFF780FE9420C8
:10132000FFF7E0FD2C4B1B681846FFF715F9024646
:101330000B46381D294903F0B1F83B1D1846FFF74D
:101340006EFE8A20FFF7CEFD254B1B681846FFF77F
:1013500003F902460B46381D224903F09FF83B1D56
:101360001846FFF75CFECA20FFF7BCFD1E4B1B684A
:101370001846FFF7F1F802460B46381D1B4903F0EB
:101380008DF83B1D1846FFF74AFE9E20FFF7AAFD89
:10139000174B1B681846FFF7DFF802460B46381D4F
:1013A000144903F07BF83B1D1846FFF738FE124B3B
:1013B0001B680133104A13604FF47A7000F0E0FAB2
:1013C00000BF84E71867000850020020206700086B
:1013D000540200202C6700085802002038670008DB
:1013E0005C02002044670008600200204C6700088F
:1013F00064020020546700086802002080B594B0A1
:1014000000AF07F1200330220021184603F0ABF8AB
:1014100007F10C0300221A605A609A60DA601A61C0
:101420000023BB60234B1B6C224A43F080531364A0
:10143000204B1B6C03F08053BB60BB6800237B60B8
:101440001D4B1B6823F440431B4A43F400431360C5
:10145000194B1B6803F440437B607B6802233B62AB
:101460000123FB6210233B630023BB6307F12003CE
:10147000184601F0B7FE0346002B01D000F066F8D5
:101480000F23FB6000233B6100237B610023BB61D2
:101490000023FB6107F10C030021184602F01AF942
:1014A0000346002B01D000F051F800BF5037BD4675
:1014B00080BD00BF003802400070004080B500AF22
:1014C000124B134A1A60114B124A5A600F4B0022FA
:1014D0009A600E4B0022DA600C4B4FF480421A6186
:1014E0000A4B00225A61094B00229A61074B0022E5
:1014F000DA61064B00221A62044800F0CFFC034672
:10150000002B01D000F022F800BF80BDF0010020C8
:1015100000540040A086010080B483B000AF0023D7
:101520007B60094B1B6B084A43F002031363064BB5
:101530001B6B03F002037B607B6800BF0C37BD466A
:101540005DF8047B704700BF0038024080B400AFF4
:1015500072B600BF00BFFDE780B483B000AF0023C8
:101560007B60104B5B6C0F4A43F4804353640D4B1C
:101570005B6C03F480437B607B6800233B60094B1A
:101580001B6C084A43F080531364064B1B6C03F03A
:1015900080533B603B6800BF0C37BD465DF8047B61
:1015A000704700BF0038024080B58AB000AF786055
:1015B00007F1140300221A605A609A60DA601A6117
:1015C0007B681B68194A93422BD100233B61184B5F
:1015D0001B6B174A43F002031363154B1B6B03F09D
:1015E00002033B613B69C0237B611223BB61002383
:1015F000FB6103233B6204237B6207F1140319465A
:101600000C4800F0C7FA0023FB60094B1B6C084A2A
:1016100043F400131364064B1B6C03F40013FB60CC
:10162000FB6800BF2837BD4680BD00BF00540040A6
:10163000003802400004024080B400AF00BFFDE764
:1016400080B400AF00BFFDE780B400AF00BFFDE78E
:1016500080B400AF00BFFDE780B400AF00BFFDE77E
:1016600080B400AF00BFBD465DF8047B704780B416
:1016700000AF00BFBD465DF8047B704780B400AF8B
:1016800000BFBD465DF8047B704780B500AF00F039
:1016900057F900BF80BD80B400AF01231846BD4696
:1016A0005DF8047B704780B582B000AF7860396028
:1016B00002F0ACFF034616221A604FF0FF331846C3
:1016C0000837BD4680BD80B582B000AF78604FF06E
:1016D000FF317868FFF7E7FF00BFFDE780B586B010
:1016E00000AFF860B9607A6000237B610AE0AFF375
:1016F00000800146BB685A1CBA60CAB21A707B6986
:1017000001337B617A697B689A42F0DB7B6818461B
:101710001837BD4680BD80B586B000AFF860B960AF
:101720007A6000237B6109E0BB685A1CBA601B78B1
:101730001846AFF300807B6901337B617A697B686F
:101740009A42F1DB7B6818461837BD4680BD80B4ED
:1017500083B000AF78604FF0FF3318460C37BD46BA
:101760005DF8047B704780B483B000AF7860396067
:101770003B684FF400525A60002318460C37BD46B0
:101780005DF8047B704780B483B000AF78600123BC
:1017900018460C37BD465DF8047B704780B485B0B1
:1017A00000AFF860B9607A60002318461437BD4670
:1017B0005DF8047B7047000080B586B000AF7860AC
:1017C000144A154BD31A7B617B693B61134B1B6831
:1017D000002B02D1114B124A1A60104B1A687B6819
:1017E00013443A699A4207D202F010FF03460C22D2
:1017F0001A604FF0FF3309E0084B1B68FB60074B92
:101800001A687B681344054A1360FB68184618374A
:10181000BD4680BD00000120000400006C020020D5
:10182000C003002080B400AF064BD3F88830054ACF
:1018300043F47003C2F8883000BFBD465DF8047BF6
:10184000704700BF00ED00E0DFF834D0FFF7EAFF9B
:101850000C480D490D4A002302E0D458C45004330B
:10186000C4188C42F9D30A4A0A4C002301E01360E1
:101870000432A242FBD302F0CFFEFFF713FD704704
:101880000000012000000020D4010020FC6A0008B4
:10189000D4010020C0030020FEE7000080B500AFA7
:1018A0000E4B1B680D4A43F4007313600B4B1B680F
:1018B0000A4A43F480631360084B1B68074A43F4E9
:1018C00080731360032000F031F90F2000F008F856
:1018D000FFF742FE0023184680BD00BF003C0240D7
:1018E00080B582B000AF7860124B1A68124B1B783B
:1018F00019464FF47A73B3FBF1F3B2FBF3F31846D6
:1019000000F03BF90346002B01D001230EE07B6879
:101910000F2B0AD8002279684FF0FF3000F011F940
:10192000064A7B681360002300E00123184608374D
:10193000BD4680BD000000200800002004000020FB
:1019400080B400AF064B1B781A46064B1B68134445
:10195000044A136000BFBD465DF8047B704700BFBA
:10196000080000207002002080B400AF034B1B6809
:101970001846BD465DF8047B704700BF700200202A
:1019800080B584B000AF7860FFF7EEFFB8607B6889
:10199000FB60FB68B3F1FF3F05D00A4B1B781A468A
:1019A000FB681344FB6000BFFFF7DEFF0246BB6825
:1019B000D31AFA689A42F7D800BF00BF1037BD4665
:1019C00080BD00BF0800002080B485B000AF786003
:1019D0007B6803F00703FB600C4BDB68BB60BA68F5
:1019E0004FF6FF031340BB60FB681A02BB6813434A
:1019F00043F0BF6343F40033BB60044ABB68D36069
:101A000000BF1437BD465DF8047B704700ED00E071
:101A100080B400AF044BDB681B0A03F007031846D1
:101A2000BD465DF8047B704700ED00E080B483B0F4
:101A300000AF03463960FB7197F90730002B0ADBD2
:101A40003B68DAB20C4997F907301201D2B20B4465
:101A500083F800230AE03B68DAB20849FB7903F017
:101A60000F03043B1201D2B20B441A7600BF0C37AD
:101A7000BD465DF8047B704700E100E000ED00E04A
:101A800080B489B000AFF860B9607A60FB6803F099
:101A90000703FB61FB69C3F10703042B28BF042381
:101AA000BB61FB690433062B02D9FB69033B00E0F1
:101AB00000237B614FF0FF32BB6902FA03F3DA4384
:101AC000BB681A407B699A404FF0FF317B6901FA8D
:101AD00003F3D9437B680B40134318462437BD46B4
:101AE0005DF8047B7047000080B582B000AF78607D
:101AF0007B68013BB3F1807F01D301230FE00A4AE9
:101B00007B68013B53600F214FF0FF30FFF78EFFE2
:101B1000054B00229A60044B07221A6000231846E6
:101B20000837BD4680BD00BF10E000E080B582B040
:101B300000AF78607868FFF747FF00BF0837BD4601
:101B400080BD80B586B000AF0346B9607A60FB7394
:101B500000237B61FFF75CFF78617A68B968786978
:101B6000FFF78EFF024697F90F3011461846FFF730
:101B70005DFF00BF1837BD4680BD80B582B000AFA5
:101B800078607868FFF7B0FF034618460837BD460F
:101B900080BD000080B489B000AF78603960002358
:101BA0007B6100233B610023BB610023FB6159E1A2
:101BB0000122FB6902FA03F37B613B681B687A69C7
:101BC00013403B613A697B699A4240F048813B6827
:101BD0005B6803F00303012B05D03B685B6803F0EF
:101BE0000303022B30D17B689B68BB61FB695B0000
:101BF000032202FA03F3DB43BA691340BB613B687B
:101C0000DA68FB695B0002FA03F3BA691343BB614C
:101C10007B68BA699A607B685B68BB610122FB697B
:101C200002FA03F3DB43BA691340BB613B685B68AC
:101C30001B0903F00102FB6902FA03F3BA691343BB
:101C4000BB617B68BA695A603B685B6803F0030359
:101C5000032B17D07B68DB68BB61FB695B00032249
:101C600002FA03F3DB43BA691340BB613B689A682D
:101C7000FB695B0002FA03F3BA691343BB617B683B
:101C8000BA69DA603B685B6803F00303022B23D177
:101C9000FB69DA087B68083253F82230BB61FB69C4
:101CA00003F007039B000F2202FA03F3DB43BA6938
:101CB0001340BB613B681A69FB6903F007039B0093
:101CC00002FA03F3BA691343BB61FB69DA087B6864
:101CD0000832B96943F822107B681B68BB61FB6955
:101CE0005B00032202FA03F3DB43BA691340BB61D2
:101CF0003B685B6803F00302FB695B0002FA03F3D5
:101D0000BA691343BB617B68BA691A603B685B6858
:101D100003F44033002B00F0A2800023FB60574BFC
:101D20005B6C564A43F480435364544B5B6C03F43E
:101D30008043FB60FB68524AFB699B08023352F800
:101D40002330BB61FB6903F003039B000F2202FAFF
:101D500003F3DB43BA691340BB617B68494A934292
:101D600019D07B68484A934213D07B68474A934214
:101D70000DD07B68464A934207D07B68454A934220
:101D800001D1042308E0072306E0032304E0022333
:101D900002E0012300E00023FA6902F0030292004E
:101DA0009340BA691343BB613549FB699B08023311
:101DB000BA6941F82320384B9B68BB613B69DB4320
:101DC000BA691340BB613B685B6803F48013002B66
:101DD00003D0BA693B691343BB612F4ABB69936067
:101DE0002D4BDB68BB613B69DB43BA691340BB61C8
:101DF0003B685B6803F40013002B03D0BA693B69AE
:101E00001343BB61244ABB69D360234B5B68BB614E
:101E10003B69DB43BA691340BB613B685B6803F411
:101E20000033002B03D0BA693B691343BB611A4AE4
:101E3000BB695360184B1B68BB613B69DB43BA69E4
:101E40001340BB613B685B6803F48033002B03D015
:101E5000BA693B691343BB610F4ABB691360FB69F5
:101E60000133FB61FB690F2B7FF6A2AE00BF00BF01
:101E70002437BD465DF8047B704700BF0038024040
:101E80000038014000000240000402400008024007
:101E9000000C024000100240003C014080B584B0BC
:101EA00000AF78607B68002B01D101232BE17B68B8
:101EB00093F83D30DBB2002B06D17B68002283F81B
:101EC0003C207868FFF770FB7B68242283F83D2074
:101ED0007B681B681A687B681B6822F001021A6025
:101EE0007B681B681A687B681B6842F400421A60B2
:101EF0007B681B681A687B681B6822F400421A60C2
:101F000001F0A0FDF8607B685B68814A934207D8C6
:101F1000FB68804A934294BF01230023DBB206E0B2
:101F2000FB687D4A934294BF01230023DBB2002B60
:101F300001D00123E7E0FB68784AA2FB03239B0C56
:101F4000BB607B681B685B6823F03F017B681B6894
:101F5000BA680A435A607B681B681B6A23F03F011A
:101F60007B685B686A4A934202D8BB68013309E028
:101F7000BB684FF4967202FB03F3694AA2FB03238A
:101F80009B0901337A6812680B4313627B681B68F4
:101F9000DB6923F44F4222F0FF027B685B685C49F7
:101FA0008B4219D8FB68591E7B685B685B00B1FBEC
:101FB000F3F3591C40F6FC730B40002B0AD0FB686E
:101FC000591E7B685B685B00B1FBF3F30133C3F31D
:101FD0000B0351E004234FE07B689B68002B11D179
:101FE000FB68581E7B6859680B465B000B44B0FBCE
:101FF000F3F30133C3F30B03002B0CBF01230023C6
:10200000DBB212E0FB68581E7B6859680B469B00E8
:102010000B4499000B44B0FBF3F30133C3F30B0300
:10202000002B0CBF01230023DBB2002B01D00123C6
:1020300022E07B689B68002B0ED1FB68581E7B68F2
:1020400059680B465B000B44B0FBF3F30133C3F359
:102050000B0343F400430FE0FB68581E7B6859688C
:102060000B469B000B4499000B44B0FBF3F3013388
:10207000C3F30B0343F44043796809681343CB610E
:102080007B681B681B6823F0C0017B68DA697B688A
:102090001B6A1A437B681B680A431A607B681B68CB
:1020A0009B6823F4034323F0FF037A6811697A687D
:1020B000D26811437A6812680B4393607B681B688F
:1020C000DB6823F0FF017B685A697B689B691A43D0
:1020D0007B681B680A43DA607B681B681A687B6848
:1020E0001B6842F001021A607B6800221A647B6858
:1020F000202283F83D207B6800221A637B6800223F
:1021000083F83E20002318461037BD4680BD00BF2F
:10211000A08601007F841E00FF083D0083DE1B4374
:10212000D34D621080B588B002AFF8607A601A466D
:102130000B467B8113463B81FFF716FC7861FB68F9
:1021400093F83D30DBB2202B40F0E0807B690093B8
:10215000192301227049F86800F00EFE0346002B97
:1021600001D00223D3E0FB6893F83C30012B01D16E
:102170000223CCE0FB68012283F83C20FB681B684B
:102180001B6803F00103012B07D0FB681B681A686A
:10219000FB681B6842F001021A60FB681B681A6842
:1021A000FB681B6822F400621A60FB68212283F836
:1021B0003D20FB68102283F83E20FB6800221A6451
:1021C000FB687A685A62FB683A895A85FB685B8DBE
:1021D0009AB2FB681A85FB68504ADA6279897B6992
:1021E0003A6AF86800F0C8FB0346002B01D00123CF
:1021F0008DE000233B61FB681B685B693B61FB680A
:102200001B689B693B613B6966E07A69396AF868DB
:1022100000F0CCFE0346002B0DD0FB681B6C042B9A
:1022200007D1FB681B681A68FB681B6842F40072E0
:102230001A6001236BE0FB685B6A1A78FB681B6815
:102240001A61FB685B6A5A1CFB685A62FB685B8D0B
:102250009BB2013B9AB2FB685A85FB681B8D013B20
:102260009AB2FB681A85FB681B685B6903F004037C
:10227000042B1BD1FB681B8D002B17D0FB685B6AFE
:102280001A78FB681B681A61FB685B6A5A1CFB685A
:102290005A62FB685B8D9BB2013B9AB2FB685A8520
:1022A000FB681B8D013B9AB2FB681A857A69396A13
:1022B000F86800F0C3FE0346002B0DD0FB681B6CD2
:1022C000042B07D1FB681B681A68FB681B6842F483
:1022D00000721A6001231AE0FB681B8D002B94D159
:1022E000FB681B681A68FB681B6842F400721A607E
:1022F000FB68202283F83D20FB68002283F83E2003
:10230000FB68002283F83C20002300E002231846EB
:102310001837BD4680BD00BF020010000000FFFF5F
:1023200080B588B002AFF860084611461A460346E9
:102330007B810B463B811346FB80FFF715FB7861E1
:10234000FB6893F83D30DBB2202B40F0D9807B69ED
:102350000093192301226D49F86800F00DFD034632
:10236000002B01D00223CCE0FB6893F83C30012B1A
:1023700001D10223C5E0FB68012283F83C20FB6801
:102380001B681B6803F00103012B07D0FB681B6867
:102390001A68FB681B6842F001021A60FB681B6840
:1023A0001A68FB681B6822F400621A60FB6821222D
:1023B00083F83D20FB68402283F83E20FB68002222
:1023C0001A64FB683A6A5A62FB68BA8C5A85FB68E1
:1023D0005B8D9AB2FB681A85FB684D4ADA62F88811
:1023E0003A8979897B690193BB6A00930346F8684F
:1023F00000F044FB0346002B52D0012381E07A69B0
:10240000B96AF86800F0D2FD0346002B0DD0FB68D6
:102410001B6C042B07D1FB681B681A68FB681B68E0
:1024200042F400721A6001236BE0FB685B6A1A7861
:10243000FB681B681A61FB685B6A5A1CFB685A627E
:10244000FB681B8D013B9AB2FB681A85FB685B8DAC
:102450009BB2013B9AB2FB685A85FB681B685B69BB
:1024600003F00403042B1BD1FB681B8D002B17D03A
:10247000FB685B6A1A78FB681B681A61FB685B6A19
:102480005A1CFB685A62FB681B8D013B9AB2FB68C1
:102490001A85FB685B8D9BB2013B9AB2FB685A853B
:1024A000FB681B8D002BAAD17A69B96AF86800F025
:1024B000C5FD0346002B0DD0FB681B6C042B07D118
:1024C000FB681B681A68FB681B6842F400721A609C
:1024D000012316E0FB681B681A68FB681B6842F45E
:1024E00000721A60FB68202283F83D20FB680022FE
:1024F00083F83E20FB68002283F83C20002300E0A4
:10250000022318461837BD4680BD00BF02001000E8
:102510000000FFFF80B58CB002AFF860084611469E
:102520001A4603467B810B463B811346FB80FFF72F
:102530001BFA7862FB6893F83D30DBB2202B40F049
:1025400014827B6A0093192301227B49F86800F00A
:1025500013FC0346002B01D0022307E2FB6893F82B
:102560003C30012B01D1022300E2FB68012283F8F9
:102570003C20FB681B681B6803F00103012B07D09C
:10258000FB681B681A68FB681B6842F001021A604E
:10259000FB681B681A68FB681B6822F400621A60FB
:1025A000FB68222283F83D20FB68402283F83E200E
:1025B000FB6800221A64FB683A6B5A62FB68BA8EA9
:1025C0005A85FB685B8D9AB2FB681A85FB685B4A8B
:1025D000DA62F8883A8979897B6A0193BB6B009348
:1025E0000346F86800F0E0FA0346002B01D001230F
:1025F000BCE1FB681B8D002B13D100233B62FB6801
:102600001B685B693B62FB681B689B693B623B6ABA
:10261000FB681B681A68FB681B6842F400721A604A
:1026200090E1FB681B8D012B1BD1FB681B681A68AE
:10263000FB681B6822F480621A600023FB61FB6860
:102640001B685B69FB61FB681B689B69FB61FB693D
:10265000FB681B681A68FB681B6842F400721A600A
:1026600070E1FB681B8D022B1BD1FB681B681A688D
:10267000FB681B6822F480621A60FB681B681A689A
:10268000FB681B6842F400621A600023BB61FB68B0
:102690001B685B69BB61FB681B689B69BB61BB69AD
:1026A00050E100237B61FB681B685B697B61FB6811
:1026B0001B689B697B617B6944E1FB681B8D032B75
:1026C00000F2F180FB681B8D012B23D17A6AB96B74
:1026D000F86800F0FBFC0346002B01D0012345E124
:1026E000FB681B681A69FB685B6AD2B21A70FB68E8
:1026F0005B6A5A1CFB685A62FB681B8D013B9AB2ED
:10270000FB681A85FB685B8D9BB2013B9AB2FB6844
:102710005A8517E1FB681B8D022B4ED17B6A009313
:10272000BB6B00220649F86800F026FB0346002B2D
:1027300008D001231AE100BF020010000000FFFFD3
:1027400004000100FB681B681A68FB681B6842F400
:1027500000721A60FB681B681A69FB685B6AD2B278
:102760001A70FB685B6A5A1CFB685A62FB681B8D17
:10277000013B9AB2FB681A85FB685B8D9BB2013BFB
:102780009AB2FB685A85FB681B681A69FB685B6A2A
:10279000D2B21A70FB685B6A5A1CFB685A62FB680B
:1027A0001B8D013B9AB2FB681A85FB685B8D9BB25F
:1027B000013B9AB2FB685A85C4E07B6A0093BB6B0D
:1027C00000226C49F86800F0D7FA0346002B01D0CC
:1027D0000123CBE0FB681B681A68FB681B6822F4C6
:1027E00080621A60FB681B681A69FB685B6AD2B278
:1027F0001A70FB685B6A5A1CFB685A62FB681B8D87
:10280000013B9AB2FB681A85FB685B8D9BB2013B6A
:102810009AB2FB685A857B6A0093BB6B00225549CC
:10282000F86800F0A9FA0346002B01D001239DE0CF
:10283000FB681B681A68FB681B6842F400721A6028
:10284000FB681B681A69FB685B6AD2B21A70FB6886
:102850005B6A5A1CFB685A62FB681B8D013B9AB28B
:10286000FB681A85FB685B8D9BB2013B9AB2FB68E3
:102870005A85FB681B681A69FB685B6AD2B21A70DA
:10288000FB685B6A5A1CFB685A62FB681B8D013B44
:102890009AB2FB681A85FB685B8D9BB2013B9AB2CA
:1028A000FB685A854EE07A6AB96BF86800F00EFC56
:1028B0000346002B01D0012358E0FB681B681A690E
:1028C000FB685B6AD2B21A70FB685B6A5A1CFB68D1
:1028D0005A62FB681B8D013B9AB2FB681A85FB6844
:1028E0005B8D9BB2013B9AB2FB685A85FB681B6803
:1028F0005B6903F00403042B24D1FB681B8D032BBD
:1029000007D1FB681B681A68FB681B6822F48062A9
:102910001A60FB681B681A69FB685B6AD2B21A709E
:10292000FB685B6A5A1CFB685A62FB681B8D013BA3
:102930009AB2FB681A85FB685B8D9BB2013B9AB229
:10294000FB685A85FB681B8D002B7FF4B6AEFB68D5
:10295000202283F83D20FB68002283F83E20FB689C
:10296000002283F83C20002300E002231846283789
:10297000BD4680BD0400010080B588B002AFF8609C
:102980007A603B600B467B81FB68DB6A7B617B691D
:10299000082B06D07B69012B03D07B6913F5803FA0
:1029A00008D1FB681B681A68FB681B6842F48072D8
:1029B0001A600BE0FB681B6B122B07D1FB681B68CE
:1029C0001A68FB681B6842F480721A603B680093C7
:1029D0007B6800224FF00111F86800F0CDF9034642
:1029E000002B0DD0FB681B681B6803F48073B3F5E4
:1029F000807F03D1FB684FF400721A64032335E033
:102A0000FB681B69B3F5804F08D17B89DBB21A469E
:102A1000FB681B6802F0FE021A611BE07B89DB1178
:102A2000DBB203F00603DBB263F00F03DAB2FB683C
:102A30001B681A613B687A680E49F86800F016FA5C
:102A40000346002B01D0012310E07B89DAB2FB683A
:102A50001B681A613B687A680749F86800F006FA53
:102A60000346002B01D0012300E00023184618374D
:102A7000BD4680BD080001000200010080B588B09D
:102A800002AFF860084611461A4603467B810B46A2
:102A90003B811346FB80FB681B681A68FB681B6858
:102AA00042F480721A607B6A00933B6A00224FF006
:102AB0000111F86800F060F90346002B0DD0FB68A7
:102AC0001B681B6803F48073B3F5807F03D1FB6838
:102AD0004FF400721A6403235FE07B89DBB21A466D
:102AE000FB681B6802F0FE021A617B6A3A6A2D4994
:102AF000F86800F0BBF90346002B01D001234CE03D
:102B000000237B61FB681B685B697B61FB681B685A
:102B10009B697B617B697A6A396AF86800F046FADA
:102B20000346002B0DD0FB681B6C042B07D1FB6800
:102B30001B681A68FB681B6842F400721A60012364
:102B40002BE0FB88012B05D13B89DAB2FB681B68BF
:102B50001A6121E03B891B0A9BB2DAB2FB681B6851
:102B60001A617A6A396AF86800F020FA0346002B85
:102B70000DD0FB681B6C042B07D1FB681B681A681F
:102B8000FB681B6842F400721A60012305E03B8970
:102B9000DAB2FB681B681A61002318461837BD4675
:102BA00080BD00BF0200010080B588B002AFF860B0
:102BB000084611461A4603467B810B463B81134665
:102BC000FB80FB681B681A68FB681B6842F4806224
:102BD0001A60FB681B681A68FB681B6842F4807205
:102BE0001A607B6A00933B6A00224FF00111F8687B
:102BF00000F0C2F80346002B0DD0FB681B681B6871
:102C000003F48073B3F5807F03D1FB684FF4007247
:102C10001A640323AAE07B89DBB21A46FB681B68AF
:102C200002F0FE021A617B6A3A6A5249F86800F0C3
:102C30001DF90346002B01D0012397E000237B619F
:102C4000FB681B685B697B61FB681B689B697B6138
:102C50007B697A6A396AF86800F0A8F90346002BA4
:102C60000DD0FB681B6C042B07D1FB681B681A682E
:102C7000FB681B6842F400721A60012376E0FB884F
:102C8000012B05D13B89DAB2FB681B681A6121E090
:102C90003B891B0A9BB2DAB2FB681B681A617A6A2D
:102CA000396AF86800F082F90346002B0DD0FB6802
:102CB0001B6C042B07D1FB681B681A68FB681B6838
:102CC00042F400721A60012350E03B89DAB2FB68DB
:102CD0001B681A617A6A396AF86800F067F9034676
:102CE000002B0DD0FB681B6C042B07D1FB681B6805
:102CF0001A68FB681B6842F400721A60012335E011
:102D0000FB681B681A68FB681B6842F480721A60D3
:102D10007B6A00933B6A00224FF00111F86800F0D3
:102D20002BF80346002B0DD0FB681B681B6803F4CF
:102D30008073B3F5807F03D1FB684FF400721A648F
:102D4000032313E07B89DBB243F00103DAB2FB68B3
:102D50001B681A617B6A3A6A0649F86800F086F8CF
:102D60000346002B01D0012300E00023184618374A
:102D7000BD4680BD0200010080B584B000AFF860A0
:102D8000B9603B601346FB7148E03B68B3F1FF3F1D
:102D900044D0FEF7E9FD0246BB69D31A3A689A426D
:102DA00002D33B68002B39D1BB681B0CDBB2012B73
:102DB0000DD1FB681B685B69DA43BB6813409BB2AB
:102DC000002B0CBF01230023DBB21A460CE0FB688A
:102DD0001B689B69DA43BB6813409BB2002B0CBF96
:102DE00001230023DBB21A46FB799A4216D1FB6815
:102DF00000221A63FB68202283F83D20FB68002232
:102E000083F83E20FB681B6C43F02002FB681A64C9
:102E1000FB68002283F83C20012323E0BB681B0CE5
:102E2000DBB2012B0DD1FB681B685B69DA43BB6821
:102E300013409BB2002B0CBF01230023DBB21A46C8
:102E40000CE0FB681B689B69DA43BB6813409BB2CC
:102E5000002B0CBF01230023DBB21A46FB799A42F8
:102E600093D0002318461037BD4680BD80B584B08E
:102E700000AFF860B9607A603B6071E0FB681B6886
:102E80005B6903F48063B3F5806F23D1FB681B6833
:102E90001A68FB681B6842F400721A60FB681B68C2
:102EA0006FF480625A61FB6800221A63FB6820227B
:102EB00083F83D20FB68002283F83E20FB681B6CF2
:102EC00043F00402FB681A64FB68002283F83C208C
:102ED000012367E07B68B3F1FF3F41D0FEF744FD7B
:102EE00002463B68D31A7A689A4202D37B68002B69
:102EF00036D1BB681B0CDBB2012B0CD1FB681B6805
:102F00005B69DA43BB6813409BB2002B14BF0123FB
:102F10000023DBB20BE0FB681B689B69DA43BB68EC
:102F200013409BB2002B14BF01230023DBB2002B04
:102F300016D0FB6800221A63FB68202283F83D202C
:102F4000FB68002283F83E20FB681B6C43F02002E4
:102F5000FB681A64FB68002283F83C20012321E00F
:102F6000BB681B0CDBB2012B0CD1FB681B685B69D7
:102F7000DA43BB6813409BB2002B14BF012300232C
:102F8000DBB20BE0FB681B689B69DA43BB6813404C
:102F90009BB2002B14BF01230023DBB2002B7FF474
:102FA0006DAF002318461037BD4680BD80B584B094
:102FB00000AFF860B9607A6034E0F86800F0E3F8D8
:102FC0000346002B01D0012334E0BB68B3F1FF3F7F
:102FD00028D0FEF7C9FC02467B68D31ABA689A4229
:102FE00002D3BB68002B1DD1FB681B685B6903F033
:102FF0008003802B16D0FB6800221A63FB68202216
:1030000083F83D20FB68002283F83E20FB681B6CA0
:1030100043F02002FB681A64FB68002283F83C201E
:10302000012307E0FB681B685B6903F08003802BCA
:10303000C3D1002318461037BD4680BD80B584B08B
:1030400000AFF860B9607A6034E0F86800F09BF88F
:103050000346002B01D0012334E0BB68B3F1FF3FEE
:1030600028D0FEF781FC02467B68D31ABA689A42E0
:1030700002D3BB68002B1DD1FB681B685B6903F0A2
:103080000403042B16D0FB6800221A63FB6820227D
:1030900083F83D20FB68002283F83E20FB681B6C10
:1030A00043F02002FB681A64FB68002283F83C208E
:1030B000012307E0FB681B685B6903F00403042B32
:1030C000C3D1002318461037BD4680BD80B584B0FB
:1030D00000AFF860B9607A6049E0FB681B685B6923
:1030E00003F01003102B19D1FB681B686FF010025E
:1030F0005A61FB6800221A63FB68202283F83D2096
:10310000FB68002283F83E20FB681A6CFB681A6497
:10311000FB68002283F83C20012330E0FEF724FC0A
:1031200002467B68D31ABA689A4202D3BB68002B66
:103130001DD1FB681B685B6903F04003402B16D070
:10314000FB6800221A63FB68202283F83D20FB689D
:10315000002283F83E20FB681B6C43F02002FB68D2
:103160001A64FB68002283F83C20012307E0FB6817
:103170001B685B6903F04003402BAED10023184667
:103180001037BD4680BD80B483B000AF78607B68E7
:103190001B685B6903F48063B3F5806F1BD17B68A8
:1031A0001B686FF480625A617B6800221A637B6837
:1031B000202283F83D207B68002283F83E207B6834
:1031C0001B6C43F004027B681A647B68002283F85E
:1031D0003C20012300E0002318460C37BD465DF873
:1031E000047B704780B586B000AF78607B68002BA9
:1031F00001D1012367E27B681B6803F00103002B08
:1032000075D0884B9B6803F00C03042B0CD0854BC6
:103210009B6803F00C03082B12D1824B5B6803F40C
:103220008003B3F5800F0BD17E4B1B6803F4003392
:10323000002B5BD07B685B68002B57D1012342E2F7
:103240007B685B68B3F5803F06D1764B1B68754A97
:1032500043F4803313601DE07B685B68B3F5A02FF7
:103260000CD1704B1B686F4A43F4802313606D4B85
:103270001B686C4A43F4803313600BE0694B1B6896
:10328000684A23F480331360664B1B68654A23F455
:10329000802313607B685B68002B13D0FEF764FB10
:1032A000386108E0FEF760FB02463B69D31A642BE5
:1032B00001D9032307E25B4B1B6803F40033002BA7
:1032C000F0D014E0FEF750FB386108E0FEF74CFB4D
:1032D00002463B69D31A642B01D90323F3E1514B16
:1032E0001B6803F40033002BF0D100E000BF7B68C3
:1032F0001B6803F00203002B63D04A4B9B6803F06A
:103300000C03002B0BD0474B9B6803F00C03082BDE
:103310001CD1444B5B6803F48003002B16D1414B56
:103320001B6803F00203002B05D07B68DB68012BD0
:1033300001D00123C7E13B4B1B6823F0F8027B68F7
:103340001B69DB00374913430B603AE07B68DB689D
:10335000002B20D0344B01221A60FEF705FB3861A8
:1033600008E0FEF701FB02463B69D31A022B01D9A4
:103370000323A8E12B4B1B6803F00203002BF0D0C2
:10338000284B1B6823F0F8027B681B69DB0025498A
:1033900013430B6015E0244B00221A60FEF7E4FA99
:1033A000386108E0FEF7E0FA02463B69D31A022BC7
:1033B00001D9032387E11B4B1B6803F00203002B99
:1033C000F0D17B681B6803F00803002B36D07B68C4
:1033D0005B69002B16D0154B01221A60FEF7C4FA68
:1033E000386108E0FEF7C0FA02463B69D31A022BA7
:1033F00001D9032367E10B4B5B6F03F00203002B42
:10340000F0D01BE0094B00221A60FEF7ADFA3861DC
:103410000EE0FEF7A9FA02463B69D31A022B07D940
:10342000032350E10038024000004742800E47422B
:10343000884B5B6F03F00203002BEAD17B681B68AB
:1034400003F00403002B00F097800023FB75814BF1
:103450001B6C03F08053002B0FD10023BB607D4B0E
:103460001B6C7C4A43F0805313647A4B1B6C03F053
:103470008053BB60BB680123FB75774B1B6803F46B
:103480008073002B18D1744B1B68734A43F480730C
:103490001360FEF769FA386108E0FEF765FA024644
:1034A0003B69D31A022B01D903230CE16A4B1B6839
:1034B00003F48073002BF0D07B689B68012B06D14E
:1034C000644B1B6F634A43F0010313671CE07B6886
:1034D0009B68052B0CD15F4B1B6F5E4A43F00403C6
:1034E00013675C4B1B6F5B4A43F0010313670BE0F0
:1034F000584B1B6F574A23F001031367554B1B6F43
:10350000544A23F0040313677B689B68002B15D093
:10351000FEF72AFA38610AE0FEF726FA02463B690E
:10352000D31A41F28832934201D90323CBE0494BAD
:103530001B6F03F00203002BEED014E0FEF714FA29
:1035400038610AE0FEF710FA02463B69D31A41F2ED
:103550008832934201D90323B5E03E4B1B6F03F041
:103560000203002BEED1FB7D012B05D1394B1B6CE7
:10357000384A23F0805313647B689B69002B00F06A
:10358000A180344B9B6803F00C03082B5CD07B6854
:103590009B69022B41D1314B00221A60FEF7E4F9FE
:1035A000386108E0FEF7E0F902463B69D31A022BC6
:1035B00001D9032387E0274B1B6803F00073002B1E
:1035C000F0D17B68DA697B681B6A1A437B685B6AA7
:1035D0009B011A437B689B6A5B08013B1B041A43EF
:1035E0007B68DB6A1B061B4913434B601B4B0122A4
:1035F0001A60FEF7B9F9386108E0FEF7B5F902463E
:103600003B69D31A022B01D903235CE0114B1B68E1
:1036100003F00073002BF0D054E0104B00221A602E
:10362000FEF7A2F9386108E0FEF79EF902463B6911
:10363000D31A022B01D9032345E0064B1B6803F084
:103640000073002BF0D13DE07B689B69012B07D113
:10365000012338E00038024000700040600047421B
:103660001B4B5B68FB607B689B69012B28D0FB6868
:1036700003F480027B68DB699A4221D1FB6803F086
:103680003F027B681B6A9A421AD1FA6847F6C073F8
:1036900013407A68526A9201934211D1FB6803F495
:1036A00040327B689B6A5B08013B1B049A4207D14E
:1036B000FB6803F070627B68DB6A1B069A4201D0EC
:1036C000012300E0002318461837BD4680BD00BF27
:1036D0000038024080B584B000AF786039607B6804
:1036E000002B01D10123CCE0684B1B6803F00703DA
:1036F0003A689A420CD9654B3A68D2B21A70634B59
:103700001B6803F007033A689A4201D00123B8E02E
:103710007B681B6803F00203002B20D07B681B68CA
:1037200003F00403002B05D0594B9B68584A43F41F
:10373000E05393607B681B6803F00803002B05D0FF
:10374000534B9B68524A43F460439360504B9B68D1
:1037500023F0F0027B689B684D4913438B607B68C4
:103760001B6803F00103002B44D07B685B68012BCE
:1037700007D1474B1B6803F40033002B19D10123F9
:103780007FE07B685B68022B03D07B685B68032B60
:1037900007D13F4B1B6803F00073002B09D10123B5
:1037A0006FE03B4B1B6803F00203002B01D10123A8
:1037B00067E0374B9B6823F003027B685B68344902
:1037C00013438B60FEF7D0F8F8600AE0FEF7CCF800
:1037D0000246FB68D31A41F28832934201D903238F
:1037E0004FE02B4B9B6803F00C027B685B689B00EF
:1037F0009A42EBD1254B1B6803F007033A689A42C3
:103800000CD2224B3A68D2B21A70204B1B6803F0DC
:1038100007033A689A4201D0012332E07B681B68B3
:1038200003F00403002B08D0194B9B6823F4E052EB
:103830007B68DB68164913438B607B681B6803F069
:103840000803002B09D0124B9B6823F460427B686D
:103850001B69DB000E4913438B6000F021F8024620
:103860000B4B9B681B0903F00F030A49CB5C22FA40
:1038700003F3094A1360094B1B681846FEF730F83A
:10388000002318461037BD4680BD00BF003C0240F3
:10389000003802405C67000800000020040000209F
:1038A0002DE9B04F90B000AF00237B630023FB6392
:1038B00000233B630023BB63594B9B6803F00C035D
:1038C000082B0DD0082B00F2A180002B02D0042B76
:1038D00003D09BE0534BBB639BE0534BBB6398E02F
:1038E0004F4B5B6803F03F037B634D4B5B6803F416
:1038F0008003002B28D04A4B5B689B0900223B6267
:103900007A623B6AC3F308000021474B03FB01F2D4
:10391000002300FB03F31344434AA0FB0212FA62A4
:103920000A46BA62FA6A1344FB627B6B0022BB61EF
:10393000FA61D7E90623D7E90A01FDF73DF9024606
:103940000B461346FB6353E0354B5B689B09002233
:103950003B617A613B69C3F3080A4FF0000B5246A2
:103960005B464FF000004FF00001590141EAD2617F
:10397000500102460B46B2EB0A0863EB0B094FF00D
:1039800000024FF000034FEA891343EA98634FEABD
:103990008812B2EB080463EB09054FF000024FF008
:1039A0000003EB0043EA5473E20014461D4614EB97
:1039B0000A033B6045EB0B037B604FF000024FF0C6
:1039C0000003D7E9004529468B02214643EA91537B
:1039D00021468A02104619467B6B0022BB60FA60C2
:1039E000D7E90223FDF7E8F802460B461346FB63CE
:1039F0000B4B5B681B0C03F0030301335B003B6361
:103A0000FA6B3B6BB2FBF3F3BB6302E0054BBB63AA
:103A100000BFBB6B18464037BD46BDE8B08F00BF46
:103A2000003802400024F40040787D0180B400AFEB
:103A3000034B1B681846BD465DF8047B704700BF0A
:103A40000000002080B500AFFFF7F0FF0246054BF5
:103A50009B689B0A03F007030349CB5C22FA03F33C
:103A6000184680BD003802406C6700082DE9FF470A
:103A700057EC106B002F0C4619463B46BBBF07F1B5
:103A800000431F4600232D230B700D9BDDF830A053
:103A9000914623F02008BCBF32461646B8F1460FC7
:103AA00005D0B8F1450F00D10134022100E0032117
:103AB00003AB019302AB009347EC106B53462246D5
:103AC00000F05AFEB8F1470F054619D119F0010F61
:103AD0000ED000EB04090022002330463946FCF7E3
:103AE000FBFF08B1CDF80C903022039B4B451ED351
:103AF000039B0E9A5B1B2846136004B0BDE8F08759
:103B0000B8F1460F00EB0409E5D10378302B0AD158
:103B10000022002330463946FCF7DEFF18B9C4F115
:103B20000104CAF80040DAF800309944D3E7591C80
:103B300003911A70D9E7F7B50029BABF49422D237E
:103B40002B2309290270437029DD0DF107031D465F
:103B50000A271A46B1FBF7F607FB1614303402F8B1
:103B6000014C0C46632C03F1FF333146F1DC30315C
:103B7000941E03F8011C411C2346AB420AD30DF1ED
:103B800009039B1AAC4288BF002302330344181A6E
:103B900003B0F0BD13F8016B01F8016FEDE73023BE
:103BA00030318370C170031DF1E700002DE9F04F43
:103BB0008DB00C46DDF8588016461F46054600F0CD
:103BC000DBFC036804931846FCF75AFB00230A93B6
:103BD000D8F800300590073323F0070303F10802FB
:103BE00094F818A0D4F800B0C8F80020D3E90089F0
:103BF00029F000430793CDF81880C4E91289DDE964
:103C000006019C4B4FF0FF32FCF798FF70BBDDE9DB
:103C10000601984B4FF0FF32FCF772FF30BB0022D9
:103C2000002340464946FCF761FF10B12D2384F87C
:103C30004330914A914BBAF1470F8CBF904698465A
:103C4000032323612BF0040323604FF00009009746
:103C500033460BAA2146284600F0D2F9013040F045
:103C60008D804FF0FF300DB0BDE8F08F42464B46DF
:103C700040464946FCF762FF40B14B46002BBCBFB3
:103C80002D2384F843307E4A7E4BD4E763680AF0E4
:103C9000DF0206925A1C3BD1062363604BF480621C
:103CA0000023226003930AABCDE901A309AB009383
:103CB000616849EC108B0DF123032846FFF7D6FE0F
:103CC000069B0999472B804629D1C81C02DB6368F3
:103CD000994241DDAAF1020A5FFA8AFA0139524695
:103CE00004F150000991FFF726FF0A9A1318012AE0
:103CF0008146236102DC2268D20701D501332361AA
:103D00009DF82330002BA2D02D2384F843309EE76A
:103D1000069A472AC2D1002BC0D10123BDE7BAF1D0
:103D2000650FDBD9BAF1660F18D1002963680BDD86
:103D3000216113B92268D00702D501330B442361F6
:103D4000A1654FF00009DBE713B92268D20701D55E
:103D50000233F4E70123F2E74FF0670A0A9B994226
:103D600005DB23682161D807EAD54B1CE7E700296A
:103D7000D4BFC1F1020201221344E0E723685A05CF
:103D800007D42369424631462846B84701302BD133
:103D900067E7BAF1650F40F2DD80D4E91201002235
:103DA0000023FCF799FE002833D0374A012331461F
:103DB0002846B84701303FF454AFDDE909384345A0
:103DC00002DB2368D8070FD5DDE9042331462846F6
:103DD000B84701303FF445AF4FF0000908F1FF3814
:103DE00004F11A0AC84509DC23689B0700F1038126
:103DF000E0680B9B9842B8BF184634E7012352464F
:103E000031462846B84701303FF42BAF09F101098C
:103E1000E8E7099B002B39DC1B4A01233146284681
:103E2000B84701303FF41DAFDDE9093959EA030312
:103E300002D12368D907D7D5DDE9042331462846C6
:103E4000B84701303FF40DAF4FF0000A04F11A0BF0
:103E5000099B5B42534501DC4B4693E701235A46DD
:103E600031462846B84701303FF4FBAE0AF1010A5B
:103E7000EEE700BFFFFFEF7F786700087467000878
:103E8000806700087C67000884670008A36DDDF880
:103E900028A05345A8BF5346002B994636DC4FF067
:103EA000000B29EAE97904F11A02A36D0693A3EB4A
:103EB00009035B4531DC099B9A453ADC2368DA0744
:103EC00037D4099BAAEB0309069BAAEB0303994588
:103ED000A8BF9946B9F1000F33DC4FF0000829EA7A
:103EE000E97904F11A0B099BAAEB0303A3EB09037D
:103EF00043457FF779AF01235A4631462846B847F4
:103F000001303FF4AEAE08F10108ECE7424631461D
:103F10002846B8470130C2D1A3E6012331462846DE
:103F20000692B84701303FF49CAE069A0BF1010BA4
:103F3000BBE7DDE9042331462846B8470130C0D14C
:103F40008FE6069A4B46424431462846B847013030
:103F5000C3D186E6DDF828A0BAF1010F01DCDB074A
:103F600036D50123424631462846B84701303FF452
:103F700078AEDDE9042331462846B84701303FF4E6
:103F800070AED4E91201002200230AF1FF3AFCF7D7
:103F9000A3FDC0B9534608F1010231462846B8478F
:103FA00001300CD15DE601235A4631462846B84718
:103FB00001303FF456AE08F10108D045F3DB4B4623
:103FC00004F15002DFE64FF0000804F11A0BF4E7A9
:103FD00001234246E1E701234A4631462846B847D5
:103FE00001303FF43EAE08F10108E3680B995B1A1B
:103FF0004345F0DCFCE64FF0000804F11909F4E752
:104000002DE9F047164698468A680B69DDF820903E
:104010009342B8BF1346336091F8432007460C46DD
:104020000AB1013333602368990642BF3368023313
:104030003360256815F0060506D104F1190AE36816
:1040400032689B1AAB4226DC94F843302268003B6E
:1040500018BF012392062BD404F14302414638468F
:10406000C84701301ED02368226903F00603042BE1
:1040700002BFE5683368ED1AA3680CBF25EAE57551
:1040800000259342C4BF9B1AED1800261A34B5428E
:104090001AD1002008E00123524641463846C8475D
:1040A000013003D14FF0FF30BDE8F0870135C6E79E
:1040B000E1185A1C302081F84300224494F845103E
:1040C00082F843100233C7E70123224641463846AF
:1040D000C8470130E6D00136D9E700002DE9FF4797
:1040E0000F7E0C9E782F914680460C469A4601F131
:1040F000430207D8622F0AD8002F00F0D180582F32
:1041000000F0B88004F1420684F842703AE0A7F16A
:104110006303152BF6D801A151F823F0754100086F
:1041200089410008054100080541000805410008D3
:1041300005410008894100080541000805410008C3
:10414000054100080541000887420008B341000806
:10415000414200080541000805410008A942000845
:1041600005410008B3410008054100080541000869
:104170004942000833681A1D1B68326004F1420688
:1041800084F8423001239CE033682068191D3160B7
:10419000060601D51D6803E04506FBD5B3F90050BE
:1041A000002D03DA2D236D4284F8433058480A234A
:1041B00011E021683368080653F8045B02D449060D
:1041C00048BFADB26F2F5248336014BF0A23082393
:1041D000002184F843106668A660002E05DB216884
:1041E0002E4321F0040121604BD01646B5FBF3F1BC
:1041F00003FB1157C75D06F8017D2F46BB420D46F4
:10420000F4D9082B0BD12368DF0708D5236961682F
:104210009942DEBF302306F8013C06F1FF36921BBF
:104220002261CDF800A04B4603AA21464046FFF785
:10423000E7FE01304AD14FF0FF3004B0BDE8F0870F
:10424000236843F0200323603248782784F84570C0
:10425000236831681F0651F8045B02D45F0648BF2B
:10426000ADB23160D90744BF43F0200323601DB1D4
:104270001023ADE72648E9E7236823F020032360F5
:10428000F6E71646BDE7336825686169181D30609A
:104290002E061B6801D5196002E06806FBD519805F
:1042A000002323611646BCE733681A1D32601E687E
:1042B000626800213046FBF793FF08B1801B606005
:1042C00063682361002384F84330AAE723693246F8
:1042D00049464046D0470130ADD023689B0713D4F0
:1042E000E068039B9842B8BF1846A6E70123324610
:1042F00049464046D04701309DD00135E3680399D7
:104300005B1AAB42F2DCEBE7002504F11906F5E796
:104310008667000897670008002310B50446C0E9C7
:104320000033C0E90433836081814366C2818361C5
:10433000194608225C3000F016F90D4B63620D4BF4
:10434000A3620D4BE3620D4B23630D4B24629C4231
:1043500006D003F16802944202D0D0339C4205D1CA
:1043600004F15800BDE8104000F07AB910BD00BF5C
:10437000E1440008034500083B4500085F4500088C
:1043800074020020024A0349034800F069B800BFE4
:104390000C000020C55F00081C00002041680C4B89
:1043A000994210B5044601D001F00CFEA168094BFA
:1043B000994202D0204601F005FEE168064B994281
:1043C00004D02046BDE8104001F0FCBD10BD00BF88
:1043D00074020020DC0200204403002010B50B4BC7
:1043E0000B4C0C4A1A60204600220421FFF794FF70
:1043F00004F1680001220921FFF78EFF04F1D000CB
:104400000222BDE810401221FFF786BFAC03002056
:104410007402002085430008014800F022B900BF63
:10442000B5030020014800F01DB900BFB50300200E
:1044300010B50446FFF7F0FF236A1BB1BDE810403A
:10444000FFF7F0BF044B2362044B1B68002BF5D130
:10445000FFF7C4FFF2E700BF9D430008AC03002054
:104460002DE9F8430746884614460026D4E901950D
:10447000B9F1010905D52468002CF7D13046BDE813
:10448000F883AB89012B07D9B5F90E30013303D07E
:1044900029463846C04706436835E9E70EB410B5EB
:1044A0009DB01FAB029006906FF000410A48079143
:1044B00004910A4953F8042B0591002402A90068CD
:1044C00001931B9401F0FEFB029B1C701DB0BDE824
:1044D000104003B0704700BF180000200802FFFF23
:1044E00010B50C46B1F90E1000F06CF80028ABBF07
:1044F000636DA3891B1823F48053ACBF6365A3814C
:1045000010BD2DE9F0411F468B89DB0505460C46A1
:10451000164605D5B1F90E100223002200F040F82E
:10452000A389B4F90E1023F48053A38132463B468D
:104530002846BDE8F04100F057B810B50C46B1F977
:104540000E1000F02DF8431CA38915BF606523F4FD
:10455000805343F48053A38118BFA38110BDB1F9E8
:104560000E1000F00DB802440346934200D170478C
:1045700003F8011BF9E700000048704758010020CC
:1045800038B5064D0023044608462B60FDF7DFF8DA
:10459000431C02D12B6803B1236038BDB003002057
:1045A00038B5074D04460846114600222A601A46CF
:1045B000FDF7F4F8431C02D12B6803B1236038BD2A
:1045C000B003002038B5074D0446084611460022C6
:1045D0002A601A46FDF782F8431C02D12B6803B10A
:1045E000236038BDB003002038B5074D04460846A7
:1045F000114600222A601A46FDF78DF8431C02D1AD
:104600002B6803B1236038BDB0030020014B18684C
:10461000704700BF1800002070B50D4D0D4C641B95
:10462000A4100026A64209D10B4D0C4C02F068F8EC
:10463000641BA4100026A64205D170BD55F8043BAA
:1046400098470136EEE755F8043B98470136F2E704
:10465000F46A0008F46A0008F46A0008F86A0008BE
:104660007047704770472DE9F74F03690C69A34203
:1046700007467EDB013C01F11408A30000F114059C
:10468000009305EB8403019358F8243055F8242057
:1046900001339A4208EB8409B2FBF3F62ED34FF0B4
:1046A000000AC446AE46D3465CF8043B98B206FB0B
:1046B00000A0020C1B0C06FB0323DEF8002080B2D6
:1046C00092B2121A5A44DEF800004FEA134A9BB223
:1046D000C3EB224303EB104392B242EA0342E145AB
:1046E0004EF8042B4FEA234BDED2009BEB582BB93C
:1046F000019B043B9D421A462FD33C61384601F092
:104700007DF9002825DB2946002058F8042BD1F834
:1047100000C01FFA82FE1FFA8CF3A3EB0E030344C2
:10472000120CC2EB234202EB1C429BB243EA02434F
:10473000C14541F8043B4FEA2240E6D255F8242017
:1047400005EB840322B9043B9D421A460BD33C611E
:104750000136304603B0BDE8F08F1268043B002AF2
:10476000CBD1013CC6E71268043B002AEFD1013CE3
:10477000EAE70020EEE700002DE9F04FC76997B0A7
:104780008DED040B55EC104B209E079181460C9249
:1047900011937FB9102000F009FE0246C9F81C00F1
:1047A00020B9A94BEF21A94801F06CFCC0E90177C1
:1047B0000760C760D9F81C30196859B15A684A6057
:1047C000012393408B60484600F0E6FED9F81C3088
:1047D00000221A602B1EB9BF23F00043059300236B
:1047E0003360059F9A4BBCBF01223260BB4312D19C
:1047F000119A42F20F731360C7F31303234300F0BF
:104800005A85219BDFF85CA2002B00F05C850AF141
:10481000030300F056BD9DED047B002251EC170B05
:1048200000238DED0A7BFCF757F9804658B1119AA9
:1048300001231360219B13B1219A864B1360DFF88B
:1048400028A200F040BD9DED0A0B14AA15A9484608
:1048500001F084F9C7F30A560290002E78D00B9B22
:10486000CDF84880C3F31303DDE90A0143F07F5319
:1048700043F44013A6F2FF3619460022764BFBF7AD
:104880000BFD6BA3D3E90023FBF7BEFE6AA3D3E9BC
:104890000023FBF703FD044630460D46FBF74AFEB6
:1048A00067A3D3E90023FBF7AFFE02460B46204681
:1048B0002946FBF7F3FC04460D46FCF755F90022A8
:1048C0000746002320462946FCF710F940B1384638
:1048D000FBF730FE22462B46FCF7FEF800B9013FFD
:1048E000162F52D85D4B03EBC703D3E90023DDE954
:1048F0000A01FCF7FBF8002849D0013F0023109380
:10490000149B9B1B5A1E45BFC3F101030093002358
:104910000023069254BF00930693002F39DB069BB9
:104920000D973B44069300230893079B092B63D8FC
:10493000052BC4BF043B0793079BA3F10203CCBF25
:1049400000240124032B63D8DFE803F05254372BF3
:10495000DDE914631E4406F23243202BC1BFC3F1CC
:1049600040039F4006F2124324FA03F3D6BFC3F17B
:10497000200347EA030004FA03F0FBF7CBFD012212
:10498000A1F1F873013E129276E70123B7E7109088
:10499000B6E7009BDB1B00937B42089300230D933B
:1049A000C3E7012309930C9B07EB030B0BF10103F6
:1049B000012B0393B8BF012306E0012309930C9B4D
:1049C000002B28DD9B460393D9F81C00002104220C
:1049D00002F114059D4226D94160484600F09CFD35
:1049E0008246002842D11E4B024640F2AF11DAE661
:1049F0000023E3E70023D5E701240023079309946C
:104A00004FF0FF3B0022CDF80CB012230C92DBE7F5
:104A100001230993F4E74FF0010BCDF80CB05B468E
:104A2000CDF830B0D0E701315200D1E7AFF30080CC
:104A300061436F63A787D23FB3C8608B288AC63FA4
:104A4000FB799F501344D33FB5670008CC6700083B
:104A50000000F07F856700080000F83F206900082B
:104A600024680008B167000884670008D9F81C3082
:104A70001860039B0E2B00F2A180002C00F09E809A
:104A8000002F33DD9C4B07F00F0203EBC20393EDC5
:104A9000007BF8058DED0E7B4FEA271416D5974B5A
:104AA000DDE90A01D3E90823FBF7D8FECDE90401CB
:104AB00004F00F040326914D54B9DDE90E23DDE91E
:104AC0000401FBF7CBFECDE9040128E00226F2E762
:104AD000E10708D5DDE90E01D5E90023FBF794FDD8
:104AE000CDE90E01013664100835E5E700F0AF802E
:104AF0007C42814B814D04F00F0203EBC203D3E9EA
:104B00000023DDE90A01FBF77FFDCDE90401241153
:104B100000230226002C40F08F80002BD3D1109B65
:104B2000DDE90445002B00F09480754B00222046FF
:104B30002946FBF7DBFF002800F08B80039B002B4E
:104B400000F08780BBF1000F34DD20466D4B002262
:104B50002946FBF759FDCDE9040107F1FF3801367D
:104B60005C463046FBF7E6FCDDE90423FBF74CFD31
:104B7000654B0022FBF792FB0546A1F15076002C15
:104B80006AD1DDE90401614B0022FBF785FB024697
:104B90000B46CDE904232A463346FBF7C5FF002820
:104BA00040F09882DDE904012A4606F10043FBF754
:104BB0009DFF38BBDDE90A34CDE90434159B002B99
:104BC000C0F257810E2F00F354814B4B03EBC70308
:104BD00093ED007B0C9B002B8DED007B80F2E5803C
:104BE000039B002B00F3E1800CD1484B002251ECD9
:104BF000170BFBF709FDDDE90423FBF78BFF00280A
:104C000000F06682002425460C9B56466FEA030896
:104C100000272146484600F0BFFC002D00F0BD8073
:104C20002FB1AF4203D03946484600F0B5FC2946C3
:104C3000484600F0B1FCB0E0E20705D5D5E9002315
:104C4000FBF7E2FC013601236410083562E7022617
:104C500065E7039CB84684E7274B099903EBC40337
:104C600053E902235444002954D029490020FBF77A
:104C7000F5FD33462A46FBF70FFBCDE90E015646FC
:104C8000DDE90401FBF770FF0546FBF753FC024624
:104C90000B46DDE90401FBF7FFFA303502460B460F
:104CA000CDE9042306F8015BDDE90E23FBF71EFFC7
:104CB000002872D1DDE9042311490020FBF7ECFA4A
:104CC000DDE90E23FBF712FF002840F0B480A64276
:104CD0003FF470AFDDE90E010A4B0022FBF794FCB4
:104CE000084BCDE90E010022DDE90401FBF78CFC45
:104CF000CDE90401C4E700BF20690008F868000896
:104D00000000F03F0000244000001C400000144060
:104D10000000E03F31462846FBF776FCCDE90E0166
:104D200013945646DDE90401FBF71EFF0546FBF729
:104D300001FC02460B46DDE90401FBF7ADFA303514
:104D400006F8015B02460B46A642CDE904234FF06C
:104D5000000224D1AF4BDDE90E01FBF79FFA0246BA
:104D60000B46DDE90401FBF7DFFE002863D1DDE936
:104D70000E23A8490020FBF78FFA02460B46DDE917
:104D80000401FBF7B3FE00283FF414AF139E731E1B
:104D9000139316F8013C302BF8D047463BE09E4B6E
:104DA000FBF732FCCDE90401BCE7DDE904455646DA
:104DB000DDE9002320462946FBF750FDFBF7D4FE32
:104DC0008046FBF7B7FBDDE90023FBF71DFC02463D
:104DD0000B462046294608F13004FBF75DFA06F839
:104DE000014B039DA6EB0A04A54202460B4633D1B4
:104DF000FBF754FADDE9002304460D46FBF794FE69
:104E0000C0B9DDE9002320462946FBF765FE10B155
:104E100018F0010F0ED10299484600F0BDFB0023A7
:104E20003370119B01371F60219B002B00F04B82D8
:104E30001E6048E2B84633461E4613F8012D392A53
:104E400006D19A45F8D1302208F101088AF80020ED
:104E50001A7801321A70A0E76F4B0022FBF7D4FBDF
:104E60000022002304460D46FBF736FE00289FD0A3
:104E7000D1E7099A002A00F0EA80079A012A00F394
:104E8000CD80129A002A00F0C18003F23343089CBF
:104E9000009E009A1A440092069A01211A4448463C
:104EA000069200F02DFC054666B1069B002B09DD3D
:104EB000B342009AA8BF3346D21A0092069AF61A55
:104EC000D31A0693089B0BB3099B002B00F0C680F6
:104ED000002C00F0C08029462246484600F0C8FC5D
:104EE000029A01460546484600F020FC0299804699
:104EF000484600F051FB089B1B1B089300F0B18053
:104F0000089A4146484600F0B3FC02900121484609
:104F100000F0F6FB0D9B0446002B00F0D8811A46EA
:104F20000146484600F0A4FC079B012B044600F311
:104F30009F80049B002B40F09780059BC3F31303D5
:104F4000002B40F09380059B23F000431B0D1B05B5
:104F500033B1009B01330093069B01330693012379
:104F600008930D9B002B00F0B881236904EB8303A9
:104F7000186900F079FBC0F12000069B184410F07E
:104F80001F0000F08280C0F12003042B73DD009B22
:104F9000C0F11C0003440093069B0344064406939F
:104FA000009B002B05DD02991A46484600F0BAFC2A
:104FB0000290069B002B05DD21461A46484600F06C
:104FC000B1FC0446109B002B61D00298214600F0F2
:104FD00015FD00285BDA002302990A22484600F0FA
:104FE000FDFA099B029007F1FF38002B00F0778152
:104FF000294600230A22484600F0F0FABBF1000FD0
:1050000005466FDC079B022B49DC6BE0149BC3F168
:1050100036033CE70000E03F00002440039B5C1E99
:10502000089BA34209DB1C1B039B002BBFF630AF80
:10503000009B039A9E1A00232BE7089B0D9A089465
:10504000E31A1A44009E039B0D92002421E7089C5A
:10505000009E099D28E7DDF8088051E7089A02992B
:1050600050E7CDF8088051E7002379E7049B77E704
:105070000023089379E793D0009A1C331A440092D6
:10508000069A1A441E4406928AE70346F4E7039BF5
:10509000002BB84620DC9B46079B022B1EDDBBF194
:1050A000000F7FF4B1AD21465B460522484600F073
:1050B00095FA01460446029800F0A0FC00287FF70C
:1050C000A3AD5646312306F8013B08F101089FE5E0
:1050D000039CB8462546F4E7DDF80CB0099B002B8D
:1050E00000F00181002E05DD29463246484600F0D9
:1050F00019FC0546089B002B5CD06968484600F007
:105100000BFA064628B9824B024640F2EF21FFF720
:105110004ABB2A690232920005F10C010C3000F002
:10512000A3FF01223146484600F0FCFB0AF10103CF
:1051300000930AEB0B030893049B03F001032F4633
:1051400006930546009B0298214603F1FF3BFFF7BB
:105150008AFA03463033039039460298099300F0E7
:105160004DFC2A4604902146484600F063FCC26884
:10517000099B064602BB0146029800F03FFC099BD2
:105180000246314648460C92099300F005FA079B07
:105190000C9A009E42EA0301069B1943099B0DD11C
:1051A000392B27D0049A002A01DD039B31338BF879
:1051B00000302EE52846B9E70122E2E704990029EC
:1051C00004DB079801430698014320D1002AEEDD55
:1051D000029900930122484600F0A4FB2146029068
:1051E00000F00CFC0028009B02DCE0D1DA07DED5E1
:1051F000392BDAD139238BF8003033461E46013B78
:1052000016F8012C392A4ED001321A7001E5002A15
:1052100003DD392BEED00133C9E7009A089902F873
:10522000013C8A4228D0029900230A22484600F015
:10523000D5F9AF4202904FF000034FF00A02394611
:10524000484607D100F0CAF907460546009B0133DE
:10525000009377E700F0C2F92946074600230A22A7
:10526000484600F0BBF90546F0E7BBF1000FCCBFA4
:105270005E460126564400270299009301224846C3
:1052800000F050FB2146029000F0B8FB0028B4DC8F
:1052900002D1009BDB07B0D433461E4613F8012D24
:1052A000302AFAD0B5E49A45A8D1312308F1010893
:1052B0008AF80030ADE4219BDFF858A01BB10AF159
:1052C0000803219A1360504617B0BDE8F08F079B82
:1052D000012B7FF72EAE0D9B089301204DE6BBF10D
:1052E000000F7FF7D9AE564602982146FFF7BBF96B
:1052F00000F1300306F8013BA6EB0A029345B4DD4A
:10530000029900230A22484600F068F90290EBE770
:1053100024680008A867000838B50546002941D070
:1053200051F8043C0C1F002BB8BFE41800F0E8F85B
:105330001D4A136833B9636014602846BDE83840DD
:1053400000F0E4B8A34208D9206821188B4201BFBD
:1053500019685B6809182160EDE71A465B680BB1B4
:10536000A342FAD911685018A0420BD12068014419
:10537000501883421160E0D118685B68536008449C
:105380001060DAE702D90C232B60D6E720682118D9
:105390008B4204BF19685B68636004BF0918216011
:1053A0005460CAE738BD00BFBC030020024B014671
:1053B000186800F025B800BF1800002070B50F4E27
:1053C0000C463168054611B900F03EFE30602146BA
:1053D000284600F039FE431C03D14FF0FF3420462D
:1053E00070BDC41C24F00304A042F8D0211A284642
:1053F00000F02AFE0130F2D1EFE700BFB803002031
:105400002DE9F843CD1C25F0030508350C2D38BFD8
:105410000C25002D064601DBA94204D90C2333607C
:105420000020BDE8F883DFF8D48000F069F8D8F8F0
:1054300000301C4644BB29463046FFF7BFFF431CE3
:10544000044658D1D8F800402746002F43D1002CFD
:105450004BD023683946304604EB030900F0F4FDD5
:10546000814542D121686D1A29463046FFF7A6FFD3
:1054700001303AD023682B442360D8F800305A68B2
:1054800062BBC8F800700FE02268521B20D40B2AC0
:1054900017D96119A342256018BF5960636808BF16
:1054A000C8F8001062514B60304600F02FF804F14C
:1054B0000B00231D20F00700C21A1CBF1B1AA350AB
:1054C000AFE76268A3420CBFC8F800205A60EBE760
:1054D00023466468AEE73C467F68B6E71A465B68D9
:1054E000A342FBD100235360DEE70C233360304638
:1054F00000F00CF894E70560D6E700BFBC0300207D
:105500000148FFF7AEB800BFB40300200148FFF721
:10551000A9B800BFB403002070B5C66904460D46A3
:1055200076B91020FFF742FF0246E06120B9184B20
:1055300018486B2100F0A6FDC0E901660660C66050
:10554000E669F36883B1E369DB6853F82500B8B90D
:10555000012101FA05F6721D9200204600F0B0FD0F
:1055600060B1C0E901560EE021220421204600F07E
:10557000A7FDE369F060DB68002BE4D1002070BD7B
:10558000026843F825200023C0E90333F7E700BF92
:10559000B56700083568000870B5C66905460C4651
:1055A00076B91020FFF702FF0246E86120B9094BE7
:1055B00009488F2100F066FDC0E901660660C660FB
:1055C0003CB1EB696268DB6853F82210216043F854
:1055D000224070BDB5670008356800082DE9F0412C
:1055E0000D6907460C461E4601F1140C0020DCF83C
:1055F000003099B202FB01611E0C0B0C02FB06335A
:1056000089B2013001EB034185424CF8041B4FEA9B
:105610001346ECDC0EB3A368AB4219DC6168384674
:105620000131FFF779FF804628B902460C4B0D483F
:10563000BA2100F027FD2269023204F10C01920028
:105640000C3000F011FD21463846FFF7A5FF444617
:1056500004EB850301355E6125612046BDE8F081DC
:105660002468000835680008B0F5803F034636BF5F
:10567000030400201020B3F1807F3CBF1B020830E0
:10568000B3F1805F3CBF1B010430B3F1804F3CBFDE
:105690009B000230002B05DB13F0804F00F101006E
:1056A00008BF202070470368024613F007000BD0A4
:1056B000D90721D4980749BF5B089B0801201360D4
:1056C0005CBF13600220704799B209B91B0C10200F
:1056D000D9B209B908301B0A190704BF1B090430E5
:1056E000990704BF9B080230D90703D45B0800F177
:1056F000010003D0136070470020704720207047DE
:1057000010B50C460121FFF707FF024628B9054BEB
:10571000054840F2451100F0B5FC012344610361E6
:1057200010BD00BF24680008356800082DE9F04F5F
:1057300017460A693B699A42A8BF3B468946A4BFFF
:105740000F4699463D69D9F810A0BB68796805EB0A
:105750000A06B34285B0B8BF0131FFF7DDFE30B9AC
:105760000246414B41484FF4B17100F08BFC00F10F
:10577000140404EB860E23460022734520D307F160
:10578000140809F1140108EB850501EB8A03029363
:10579000EB1B153B23F0030304331537BD4238BF21
:1057A00004230193029B03918B420CD8002E03DD4E
:1057B0005EF8043D002B55D0066105B0BDE8F08FC2
:1057C00043F8042BD9E7B1F800A0BAF1000F1FD0BD
:1057D000C446A14600275CF8042BD9F800301FFA14
:1057E00082FB9BB20AFB0B333B44D9F80070120CCE
:1057F0003F0C0AFB027202EB13429BB243EA0243E4
:10580000654549F8043B4FEA1247E4D8019BE7504D
:10581000039BB3F802900431B9F1000F20D0236844
:105820004746A4464FF0000AB7F800B0BCF8022083
:1058300009FB0B2252449BB243EA02434CF8043B5F
:1058400057F8043B4FEA134ABCF8003009FB0A330F
:1058500003EB1243BD424FEA134AE5D8019AA35025
:1058600004349FE7013EA1E724680008356800087A
:105870002DE9F843154612F0030207460E4607D0FD
:10588000254C013A002354F82220FFF7A7FE0646D4
:10589000AD103DD0FC697CB91020FFF787FD0246B2
:1058A000F86128B91D4B1E4840F2B31100F0EAFB25
:1058B000C0E901440460C460D7F81C80D8F80840EF
:1058C0004CB940F271213846FFF71AFF0023C8F89F
:1058D0000800044603604FF00009EB070AD5314683
:1058E00022463846FFF722FF314680463846FFF70A
:1058F00053FE46466D100BD0206838B9224621462B
:105900003846FFF713FF2060C0F800900446E4E734
:105910003046BDE8F88300BFE8680008B5670008B6
:10592000356800082DE9F0470C464968236903EB08
:105930006218A368074691464FEA621A08F1010609
:10594000B3420BDB3846FFF7E7FD054648B9024690
:10595000284B29484FF4EF7100F094FB01315B00B4
:10596000EEE7002300F1140100F110021846534540
:1059700033DB20692AEAEA7A04F1140319F01F09DB
:1059800001EB8A0103EB800C2BD0C9F1200E8A4673
:105990000022186800FA09F010434AF8040B53F883
:1059A000042B9C4522FA0EF2F3D8ACEB0403153B12
:1059B00023F00303043304F11500604588BF04237A
:1059C000CA500AB108F10206013E38462E6121464E
:1059D000FFF7E2FD2846BDE8F08742F8040F0133E7
:1059E000C5E7043953F8042B41F8042F9C45F9D836
:1059F000EAE700BF24680008356800080A69034622
:105A00000069801A30B50ED11433143103EB8204CF
:105A100001EB820154F8045D51F8042D954203D046
:105A200005D24FF0FF3030BDA342F3D3FBE7012096
:105A3000F9E700002DE9F74F89460646114648462A
:105A40001446FFF7DBFF051E12D129463046FFF74B
:105A500063FD024628B93F4B40F237213E4800F033
:105A600011FB0123C0E90435104603B0BDE8F08FF7
:105A7000BCBF4B46A1463046D9F80410BABF1C46FD
:105A800001250025FFF748FD024618B9314B40F2C9
:105A90004521E3E7D9F810702669C56009F11003C4
:105AA00009F1140504F1140E00F1140B05EB87083D
:105AB0000EEB86060193D9464FF0000C019B5EF871
:105AC000040B53F804AF01931FFA8AF3194683B20B
:105AD000CB1A000C6344C0EB1A4000EB23409BB28E
