:020000040800F2
:10000000F8200020D9010008E92200086D2200082C
:10001000E5220008F10200082D4B00080000000056
:10002000000000000000000000000000FD220008A9
:100030008103000800000000F922000801230008E5
:10004000F3010008F3010008F3010008F3010008C0
:10005000F3010008F3010008F3010008F3010008B0
:10006000F3010008F3010008F3010008F3010008A0
:10007000F3010008F3010008F3010008F301000890
:10008000F3010008F3010008F3010008F301000880
:10009000F3010008F3010008F3010008F301000870
:1000A000F3010008F3010008F3010008F301000860
:1000B000F3010008F3010008F3010008F301000850
:1000C000F3010008F3010008F3010008F301000840
:1000D000F3010008F3010008F3010008F301000830
:1000E000F3010008F3010008F3010008F301000820
:1000F000F3010008F3010008F3010008F301000810
:10010000F3010008F3010008F3010008F3010008FF
:10011000F3010008F3010008F3010008F3010008EF
:10012000F3010008F3010008F3010008F3010008DF
:10013000F30100080000000000000000F3010008C7
:10014000F3010008F3010008F3010008ED220008A4
:10015000F3010008F3010008F3010008F3010008AF
:10016000F3010008F3010008F3010008F30100089F
:10017000F3010008F3010008F3010008000000008B
:1001800000000000F3010008000000000000000073
:10019000F30100080000000000000000F301000867
:1001A000000000000000000000000000F301000853
:1001B000F3010008F3010008F3010008F30100084F
:1001C000F3010008DFF80CD000F07AF8004800478F
:1001D000314B0008F82000200648804706480047B9
:1001E000FEE7FEE7FEE7FEE7FEE7FEE7FEE7FEE7E7
:1001F000FEE7FEE7B1230008C50100082DE9F05F26
:100200000546002092469B46884606468146402485
:100210001BE0284641464746224600F041F8534637
:100220005A46C01A914110D311461846224600F092
:1002300028F82D1A67EB01084F46224601200021BD
:1002400000F01FF817EB00094E41201EA4F1010435
:10025000DFDC484631462A464346BDE8F09FD2B22D
:1002600001E000F8012B491EFBD270470022F6E79F
:1002700010B513460A4604461946FFF7F0FF20461C
:1002800010BD202A04DB203A00FA02F1002070475A
:100290009140C2F1200320FA03F3194390407047C4
:1002A000202A04DB203A21FA02F00021704721FACB
:1002B00002F3D040C2F12002914008431946704732
:1002C0001CB509480090094801900546009C06E0CD
:1002D000E06840F0010394E8070098471034AC420E
:1002E000F6D3FFF773FF0000F84B0008184C000826
:1002F000FEE70000002070470020704710B541F273
:100300003054C2F2000440F62C51C2F200012046E3
:10031000002202F01BFA40F22C51C2F200012046EA
:1003200002F006FA002010BD10B541F23054C2F2BE
:1003300000040146204602F0FBF9204602F0D2F903
:10034000002010BD0020704741F23052C2F200027E
:10035000D2F8BC22D2F81432002B1CBF0120704707
:1003600010B541F23054C2F200040A46014620465C
:1003700002F0ECF92046BDE8104002F06BBA000034
:100380007047000072B600BFFEE70000B0B504463B
:1003900000F0E0F8054640F20000C2F200000078EC
:1003A000611C18BF044400BF00F0D4F8401BA042F9
:1003B000FAD3B0BD2DE9F04F83B000F1200200F177
:1003C0003E4741F60005009207F1FF77C4F20205AF
:1003D00007224FEAB726A84208BF062200254FF0A1
:1003E00000084FF00009062E38BF4FEAB7220192ED
:1003F0000AE000BF09F1010908F10208B9F1100F84
:1004000005F1040500F0A2800F68012202FA09FE3E
:1004100017EA0E0AEED0D1F804C003220CF003074D
:100420007E1E02FA08F4012E6FEA040B12D88468CB
:10043000CE6804EA0B0406FA08F634438460446884
:1004400024EA0E06CCF3001404FA09F426434660AD
:1004500004E000BF032F01D103271EE0C6688C68AB
:1004600006EA0B0604FA08F42643022FC66014D1EC
:100470006FF00302009E02EA590756F807C005F024
:100480001C040F220B69A2402CEA0202A3401A436B
:10049000F251D1F804C00CF00307026807FA08F320
:1004A00002EA0B021A431CF4403F0260A2D0002271
:1004B00043F644030292C4F202031A6843F600446E
:1004C00042F480421A601A68C4F2010402F48042C5
:1004D0000292029A29F003024FF6084C2244CFF60A
:1004E000FF7C52F80C3005F00C070F26BE40B343DA
:1004F000019E06FA07F73B4342F80C30A2684B68AE
:1005000042EA0A0743F60C4CDE0258BF22EA0A0709
:10051000A760C4F2010CDCF800209E0242EA0A0740
:1005200058BF22EA0A07CCF8007062689E0342EACC
:100530000A0758BF22EA0A0767602268DB0342EA1B
:100540000A0758BF22EA0A07276053E703B0BDE84D
:10055000F08F000041F6F040C2F2000000687047E2
:1005600040F2000041F6F041C2F20000C2F2000188
:1005700000780A68104408607047000080B543F6B0
:100580000040C4F20200016841F40071016001689A
:1005900041F480610160016841F4807101600320D1
:1005A00000F086F80F2000F005F800F027F8002092
:1005B00080BD000070B540F20006C2F2000640F2B5
:1005C00028013278C2F200014FF47A730968B3FB54
:1005D000F2F20446B1FBF2F1084601F031FE0F2CB5
:1005E0004FF0010508D838B94FF0FF3021460022FE
:1005F000002500F031F87460284670BD82B00020FC
:1006000043F640010190C4F202014A6842F480427C
:100610004A604A6802F480420192019A0090086898
:1006200040F080500860086800F08050009000980A
:1006300002B07047002848BF704700F01F01012238
:1006400002FA01F11C2202EAD0004EF20012CEF2B0
:10065000000281507047000010B54EF60C5CCEF2DF
:10066000000CDCF80030C3F3022E8EF00704042CDB
:1006700028BF0424BEF103034FF0FF3E0EFA04F43A
:1006800038BF0023A14399400EFA03F39A43114364
:1006900000F00F0200F160430901043A03F56443DE
:1006A0006244002848BF02F10C03197010BD00001D
:1006B0004EF60C51CEF200010A684FF6FF031A40C5
:1006C00060F30A2242F0806040F0FD7008607047DD
:1006D00001220168C0F8D824002280F8CC2488695F
:1006E00040F000608861486D40F0805040F00302A7
:1006F00000204A657047000010B50129044619D052
:1007000079BBE07A48B101F0FDFD4EF61050CEF213
:100710000000016821F0060101602068D0F8001E89
:1007200021F00101C0F8001ED4F8E004BDE810403B
:1007300002F0ACBC2068D0F8001E41F00101C0F806
:10074000001ED4F8E00402F027FDE07A002808BF7C
:1007500010BD4EF61050CEF20000016841F00601C7
:10076000016010BD02680020516270472DE9F04120
:10077000D0F80080D8F8243091B1D8F82870B1F1C1
:10078000010C03EB17414FD05FFA8CF708F5827329
:10079000042F0CF0030E0BD2002700242BE000BF27
:1007A00043EA02410020C8F82810BDE8F08100BFEC
:1007B0000CF0FC0508F1F406002400BF56F8107F89
:1007C00044F0020001EB174144F00107FFB253F877
:1007D0002770C0B253F8200001EB174101EB104025
:1007E00044F00301C9B253F821100434E7B2AF4218
:1007F00000EB1141E2D1BEF1000F15D053F82700F4
:10080000BEF1010F01EB10410ED0601CC0B253F8D5
:100810002000BEF1020F01EB104105D0A01CC0B2B8
:1008200053F8200001EB104141EA024008EB8C0133
:10083000C1F804010020BDE8F0810000D0F8E00418
:1008400002F03CBB01EBC102D0F8E03400EB8200C7
:10085000026A184602F09EBA01EBC102D0F8E034F9
:1008600000EB8200D0F86022184602F0EFBA0000D8
:10087000D0F8E00402F024BB10B54FFA81FC4FF42D
:10088000157201F00F0EBCF1000F48BF142290F852
:10089000944402440EEBCE034FEAD11C02EB8301D9
:1008A000012C81F801C002F823E004BF022010BD32
:1008B0000268012380F894340446104603F0CEF811
:1008C000002084F8940410BDB0B5037901F00F0244
:1008D0009A4284BF0120B0BD4BB24FF41574002B77
:1008E00048BF142400EB040E90F8944402EBC203BA
:1008F0004FEAD11C0EEB8301012C4FF0000481F86C
:1009000001C08C700EF8232004BF0220B0BD026825
:10091000012380F894340546104603F091FB2046ED
:1009200085F89444B0BD000001F00F0101EBC10156
:1009300000EB8100D0F868027047000010B54FFA54
:1009400081FE01F00F0CBEF1000F6FF3DF220CEB04
:10095000CC010DD400EB810E00240EF515718EF83C
:1009600055428EF854C2CEF85C228EF8583209E017
:1009700000EB810101F814CF01244C708A600B71E7
:10098000A1F81AC0022B04BF00224A7190F89424E7
:10099000012A04BF022010BD0268012380F89434AC
:1009A0000446104602F0FEFE002084F8940410BDB8
:1009B00010B501F00F0E0EEBCE0100EB81044FF0ED
:1009C000000CC4F868C284F855C290F806C004F55B
:1009D0001571C4F86022C4F86432BCF1010F84F8C8
:1009E00054E208BFCA610068624603F073FB00204E
:1009F00010BD0000B0B5027901F00F0494424FF031
:100A000001022CD84BB24FF41575002B48BF1425AA
:100A10004FEAD11C48BF2146054401EBC10305EB59
:100A2000830181F801C090F894C48A70BCF1010F71
:100A300005F8234004BF0220B0BD0268012305462B
:100A400080F89434104603F025FB2CB92868A97966
:100A500005F29C4203F0C6FA002285F89424104661
:100A6000B0BD000001F00F0C0CEBCC0100EB8101DC
:100A700001F814CF4FF0000C0B618379C1F814C05A
:100A80004FF0010CCA60012B81F801C008BFCA6198
:100A900080B500681A4603F01DFB002080BD0000F1
:100AA0002DE9F04F87B005688246284603F02EFDF9
:100AB00010B107B0BDE8F08FDAF8000003F054FD84
:100AC0000028F6D0D5F80808C0F30D21DAF80000A8
:100AD000CAF8D41403F048FD0146DAF8000089078B
:100AE00003D5416901F00201416105F500610491FE
:100AF00003F03AFD0146DAF80000C906059535D540
:100B0000816921F0100181612C6A04F00F0000EB73
:100B1000C0000AEB8001C4F34340062801F51575B7
:100B200012D002281BD147F6F07014EA000616D046
:100B3000E96834090598224603F01AFDE86800EBDD
:100B40001610E86008E000BF05980AF29C410822F0
:100B500003F00EFDC4F30A14686920446861DAF8F2
:100B60000000816941F010018161059D03F0FCFCEA
:100B7000000340F1F180DAF8000003F0D3FC002814
:100B800000F0EA8006460AF29C404FF430680024E8
:100B90004FF0000B069019E005EB08000221816080
:100BA000B80642BF05EB080020218160B80442BFAF
:100BB00005EB08004FF4005181600BF1010B760842
:100BC00008F1200804F1240400F0C680F007F4D0F6
:100BD000DAF800005FFA8BF9494603F0BDFC0746DE
:100BE000C00760D005EB080001218160DAF8000041
:100BF00008EB0001036C8A689AF80650012D25D194
:100C0000150733D4950600F19F8043F20B05C4F617
:100C10005475AB42059D02D312F4004230D10AEB69
:100C20000402D2F8743209696FF3DF41A3EB0101CA
:100C3000C2F868129CBBD2F86432002B00F08A80A4
:100C4000D2F860020844C2F8600228E043F20B05C3
:100C5000C4F65475FF35AB4218D1059D10040FD46E
:100C6000900644BF2020886019E000BF43F20B00CB
:100C7000C4F65470059D834215D312F4004012D07F
:100C80004FF40040886038070FD43DE0059D34B92B
:100C9000DAF8641219B90021069A03F0A3F9504654
:100CA0004946FFF7D9FD38072ED505EB0800082186
:100CB0008160DAF8000043F20B02056C4044816861
:100CC000C4F6547295420BD311F4004108D04FF48E
:100CD00000418160504600F05BFD059D0AE000BFC9
:100CE000504600F055FD43F20B00C4F654708542A7
:100CF000059D09D39AF80600012805D1DAF800000D
:100D0000069A012103F06EF9F80642BF05EB0800D0
:100D100010218160B8077FF543AF6869000604D5EC
:100D20000499486840F4806048600AEB040090F839
:100D3000571201297FF430AF002180F85712504636
:100D4000494600F05BFB27E720208860059D3807B7
:100D5000ABD4D9E701219FE7DAF80000CDF818A05D
:100D600003F002FC400340F1D3800698006803F0D2
:100D7000D1FB002800F0CC800646069805F51069E6
:100D800000F1140100F29C40002703910190CDF87E
:100D9000089004E0760807F1010700F0B980F00739
:100DA000F8D006985FFA87FA0068514603F0C2FB54
:100DB0000446C00726D0049A07F00F00516B0123A8
:100DC00003FA00F021EA0000506309EB471083604A
:100DD00006988079012811D1039907EBC70001EB30
:100DE0008000D0E902121144C1603FB9006928B9FE
:100DF0000698019A0068012103F0F4F8069851461C
:100E0000FFF720FD200742BF09EB47100821816052
:100E1000E00642BF09EB471010218160600642BF27
:100E200009EB471040218160A00716D528463946B6
:100E300003F0FEFA039907EBC70001EB800010F8FE
:100E4000031F012905D1002101700698514600F0C9
:100E5000D1FA09EB47100221816020069AD5039947
:100E600007EBC70001EB8008D8E90420824291D348
:100E70000699D8F808300C68111A994238BF0B4609
:100E800004EB4711D1F818C903F1030E1FFA8CF3D4
:100E9000B3EB9E0F2DD301F5106900BFD8F81020D9
:100EA000824224D9101A069AD8E902B19579584598
:100EB00038BF83461FFA8BF3204652460095059DA6
:100EC00003F0FEFDD8F80C00D8F814105844C8F808
:100ED0000C0001EB0B00C8F81400D9F818100BF146
:100EE000030289B2B1EB920FD8D2D8F81020DDF806
:100EF000089082423FF64EAF07F00F00D4F8341846
:100F0000012202FA00F021EA0000C4F8340841E7A7
:100F1000DDF81890D9F8000003F026FB00280DD466
:100F2000D9F8000003F020FB000526D4D9F8000012
:100F300003F01AFB000131D43CE000BF049948687B
:100F400020F00100486099F8CC04012808D1002065
:100F500089F8CC0448460021FFF7CEFB03E000BF30
:100F6000484600F0F9FBD9F80000416901F0004162
:100F7000416103F0F9FA0005D8D504988068C007EC
:100F800002D0484600F02CFCD9F80000416901F479
:100F90000061416103F0E8FA00010BD5D9F80000C7
:100FA000416901F00061416199F8CC1461B1484692
:100FB00000F016FCD9F8000003F0D6FAC00414D4EF
:100FC000D9F8000005E100BF012189F8CC14406D7B
:100FD000C0F38300C9F8D0044846FFF78DFBD9F869
:100FE000000003F0C1FAC004EAD50499486820F073
:100FF00001004860D9F80000102103F019FA99F8AF
:101000000400010600F0B980C1B2042900F0030019
:1010100002D2002167E000BF6FF0600202EA4112D5
:1010200000234FF67F370021EE18C6F80879D6F86E
:101030000059803325F40015C6F80059C6F8087B1E
:10104000D6F8005B9A4225F40015C6F8005BD6F886
:10105000005B01F1040145F00065C6F8005BC6F8CD
:101060002879D6F8205925F40015C6F82059C6F875
:10107000287BD6F8205B25F40015C6F8205BD6F84F
:10108000205B45F00065C6F8205BC6F84879D6F8C5
:10109000405925F40015C6F84059C6F8487BD6F8E3
:1010A000405B25F40015C6F8405BD6F8405B45F080
:1010B0000065C6F8405BC6F86879D6F8605925F433
:1010C0000015C6F86059C6F8687BD6F8605B25F451
:1010D0000015C6F8605BD6F8605B45F00065C6F8A1
:1010E000605B059DA0D1002847D005F5106202EB9A
:1010F00041134FF67F374E019F609559059B25F4AC
:10110000001503F53063955103EB4115AF609D5910
:10111000012825F400159D519D5945F000659D510C
:101120002BD04E1C02EB46147501A760545903EBFB
:10113000461624F400145451B7605F59022827F46E
:1011400000175F515F5947F000675F5115D0881C49
:1011500002EB40174FF67F364101BE60575803EB54
:10116000401027F4001757508660585820F400109C
:101170005850585840F000605850049F8421F86936
:10118000442240F00110F86199F80F0000284FF058
:101190000B0008BF142108BF42F22B007B5808BF88
:1011A000102218437850B85840F00B00B8503868F7
:1011B00009F29C4220F4FE603860D9F8000099F8EA
:1011C000061002F00FFFD9F80000416901F48051C8
:1011D000416103F0C9F90146D9F8000089041AD524
:1011E00002F022FBD9F8000003F082F9D9F80040A0
:1011F00089F8070000F0E0FD99F807200146204635
:1012000003F0D2FB484600F091FAD9F8000041699A
:1012100001F40051416103F0A7F9000706D4D9F8A1
:10122000000003F0A1F900060DD437E0484600F0B5
:1012300097FAD9F80000416901F00801416103F013
:1012400093F900062AD50599886920F08000886105
:1012500099F80400022821D309F5157409F1140541
:10126000012640F27B2704E00136864207F124077D
:1012700014D219F807100129F6D106F00F0000EB7F
:10128000C0023006D9F8000005EB820158BF04EB1C
:10129000820103F03DF899F80400E5E7D9F8000071
:1012A00003F062F9C0024FD4D9F8000003F05CF9F2
:1012B000059D800240F1808099F80410022929D30D
:1012C00005F53260013909F51F72012305E000BF01
:1012D0002030013902F124021CD007681678012E53
:1012E000F6D1B7F1FF3FF3DCD9F8D46407F48037C7
:1012F00006F00106B742EBD102F8013CAF6947F0B6
:101300008007AF616F693F06E2D40499486840F4F2
:1013100000704860D9F80000416901F40011416192
:1013200003F022F940004DD54846FFF787FAD9F877
:101330000000416901F08041416103F015F9400767
:101340007FF5B7AB45E000BF99F80400022827D32A
:10135000059909F1140401F5126509F13B064FF0F6
:101360000108012706E000BF01372035874206F15A
:10137000240615D229687278012AF5D1B1F1FF3F10
:10138000F2DC07F00F0000EBC001D9F8000004EB1D
:10139000810186F8008002F0BBFF99F80400E3E7C2
:1013A000D9F80000416901F48011416103F0DCF8D3
:1013B000059D80023FF580AFD9F8000003F0D4F816
:1013C0004000B1D4D9F8000003F0CEF840077FF513
:1013D00070ABD9F800004468610704D54846FFF7B0
:1013E00047FAD9F8000041682143416007B0BDE8E1
:1013F000F08F0000D0F8E00401F0C6BDD0F8E004A2
:1014000001F0D8BD002804BF01207047F0B581B0BD
:101410000446056890F8950428B9002084F89404DF
:10142000204600F02DF90320B5F1A04F84F8950473
:1014300004BF0020A071206802F0CCFD94E80F00EA
:10144000267C009602F000FA002840F00081206817
:10145000002103F0E3F8002840F0F98094F804E05C
:10146000BEF1000F00F0EC800EF0030CBEF1040F93
:101470004FF0000240D30EF0FC03A4F190000321D2
:10148000012500BFCE1E80F8A460A0F8BE608E1EAD
:1014900080F8C860A0F8E2604E1E80F8EC60A0F80A
:1014A000066180F81011A0F82A110E1D013180F894
:1014B000A55080F8A820C0E92B22C0F8B42080F8FD
:1014C000C95080F8CC20C0E93422C0F8D82080F878
:1014D000ED5080F8F020C0E93D22C0F8FC2080F8F3
:1014E000115180F81421C0E94622C0F82021903023
:1014F00099423146C6D1F21EBCF1000F31D004F141
:10150000140002EBC20100EB8105012300F8212049
:101510000021BCF1010F6B706A832971C5E90211CA
:1015200029611ED0551C05EBC50600EB8607BCF1F2
:10153000020F7B7000F826507D833971C7E90211D4
:1015400039610ED0911C01EBC10200EB8203012531
:1015500000F8221000205D7059831871C3E9020061
:101560001861BEF1000F6BD0BEF1040F4FF0000206
:1015700036D30EF0FC000321234600BFCF1E83F8B4
:1015800054728F1E83F878724F1E83F8C0120D1D9F
:10159000013183F8552283F85822C3E99722C3F812
:1015A000642283F8792283F87C22C3E9A022C3F85D
:1015B000882283F89D2283F89C7283F8A022C3E9D5
:1015C000A922C3F8AC2283F8C12283F8C422C3E95C
:1015D000B222C3F8D022903381422946CED1EA1EEE
:1015E000BCF1000F2CD004F5157002EBC20300EB28
:1015F00083070021BCF1010F797000F823203971B5
:10160000C7E9021139611BD0531C03EBC30700EB80
:101610008706BCF1020F717000F827303171C6E9FE
:10162000021131610CD0911C01EBC10200EB82036D
:1016300000275F7000F822101F71C3E902771F6155
:1016400094E80F00277C009702F06AFA30B102207C
:1016500084F89504012001B0F0BD00BF0020607443
:10166000012084F89504207B012802D12046FFF751
:101670002FF8206802F044FA002001B0F0BD00000D
:10168000B0B59EB0044600201D90CDE91B00CDE909
:10169000190002A804305821FEF7E8FD2068B0F1D7
:1016A000A04F01D01EB0B0BD4FF48070029002A8D0
:1016B00000F0B0F8002818BFFEF764FE002543F6DE
:1016C00030040195C4F20204206819A940F0010019
:1016D0002060206800F00100019001984FF4C05094
:1016E00019900220CDE91A0503201C900A201D90B4
:1016F0000020C4F20200FEF75DFE6068002140F0A9
:101700008000606001956069002240F48040606163
:10171000606900F48040019001984320FEF79CFF2F
:101720004320FEF787FF1EB0B0BD000010B5044691
:10173000C07928B1022801D0FEF724FE012100E083
:101740000021D4F8E00401F0BBFCD4F8E004BDE8CB
:10175000104001F06BBC0000D0F8E00401F096BC32
:10176000D0F8E00401F09CBC90F89424012A04BF56
:101770000220704710B5012280F894244174026859
:101780000446104603F0FEF8002084F8940410BDCF
:10179000D0F8E02400F29C41104601F0A7BC000004
:1017A00010B5044690F89404012804BF022010BD2F
:1017B0002068012184F89414C168490606D5617B2C
:1017C000012903D1816B41F48031816302F028FE4D
:1017D000206802F085F9002084F8940410BD000010
:1017E00010B50446D0F8E00401F0D6FC2068D0F82B
:1017F000001E41F00101C0F8001EE07A002808BF79
:1018000010BD4EF61050CEF20000016841F0060106
:10181000016010BD2DE9F04381B00446006843F635
:101820008C06C107C4F2020604D14FF000098107FB
:101830000CD415E03168A26B21F0C0611143316016
:10184000B2FA82F14FEA5119810709D53168E26B8A
:1018500021F0C05111433160002A08BF4FF0010947
:10186000410705D44FF00008010712D420E000BF63
:101870003168226B21F4401111433160B2FA82F1D8
:101880004FEA5118B2F5801F08BF4FF00109010758
:101890000ED53168626B21F440011143B2F5800F1F
:1018A000316008BF4FF00109002A08BF4FF001085E
:1018B00081065AD50020009056F84C0C47F20007DC
:1018C00040F0805046F84C0C56F84C0CC4F200071F
:1018D00000F0805000900098386840F480703860C4
:1018E000FEF738FE054600BF3868C00506D4FEF78F
:1018F00031FE401B0228F7D990E100BF56F81C0CBE
:1019000010F4407017D0216C01F44071884212D05D
:1019100056F81C0C40F64061C4F24721012220F425
:1019200040700A6000220A6046F81C0C56F81C0C35
:10193000C00740F07B812068216C56F8842C4FF65C
:10194000FF4701F4407322F4F812C0F6FF770F400E
:10195000B3F5407F08BF3A4346F8842C56F81C2C58
:101960006FF31F31114346F81C1CC10610D4010649
:1019700019D441061FD4C10525D4810530D44105B1
:1019800036D4B9F1010F18BFB0F5006F3CD062E05A
:1019900094F8580040F64061C4F24721C1F8A00312
:1019A00020680106E5D5B168E26C21F440011143DD
:1019B000B1604106DFD5B168A26C21F080611143AE
:1019C000B160C105D9D5B168626D21F000611143E4
:1019D000B160B2F1006F08BF4FF001088105CED5AC
:1019E000B168626C21F080511143B1604105C8D5E6
:1019F000B268216D22F000520A43B0F5006FB26068
:101A000018BFB1F1005F23D140F26809C4F2472941
:101A10000020C9F80000FEF79DFD054656F88C0C25
:101A2000000105D5FEF796FD401B0228F6D9F5E02A
:101A30002068C10702D0A16B00296FD0810702D5B1
:101A4000E16B00296AD0410700F17D807FE000BF93
:101A5000B9F1010FD8D0B8F1000F4FF0000000F03D
:101A6000DE806827C4F24727B860FEF773FD05469D
:101A700056F88C0C800005D5FEF76CFD401B022843
:101A8000F6D9CBE02068410701D5216B19B10107D8
:101A90001AD5616BC1B956F8041CD4E9062301F4C8
:101AA0004031656A114341EA831141EA0561D4F886
:101AB0002CC046F8041C31686FF0FF0221F4F85185
:101AC00002EB0C2211433160C00516D5606DB0F1F8
:101AD000006F12D156F8040C226AD4E9061300F004
:101AE0007060D2034FF6FF75AA430843A2F5803217
:101AF00040EA8310104346F8040C0120B860FEF75A
:101B000029FD044656F88C0C800000F18B80FEF70E
:101B100021FD001B0328F5D380E000BF56F8081C08
:101B200056F8082CD4E9013501F4403102F0706216
:101B300019436769114341EA851141EA077146F883
:101B4000081C410703D5216BB1F5801F05D00107A3
:101B50001FD5616BB1F5800F1BD156F8081C56F8E4
:101B6000082CD4E9013701F4403102F0E042194376
:101B70002569114341EA871141EA0561D4F828C07B
:101B800046F8081C3168ACF1010221F01F01114335
:101B9000316041051FD5216DB1F1005F1BD1271DBB
:101BA00056F808CC56F8082CA8CFFF034FF6FF7163
:101BB00027EA01014FF0C06702F0E04207EA4C2734
:101BC00007F100771A433A43A1F5803142EA8512C2
:101BD000114346F8081C000510D5271D8FCF40EA99
:101BE0008110D1034FF6FF729143A1F5803140EA95
:101BF0000360084340EA077046F8080C0120C9F862
:101C00000000FEF7A7FC054656F88C0C00013FF5D6
:101C100022AFFEF79FFC401B0228F5D9032001B03C
:101C2000BDE8F083002001B0BDE8F083FEF792FC30
:101C3000054641F2883700BF56F81C0C80073FF577
:101C40007AAEFEF787FC401BB8424FF00300F3D991
:101C5000E5E70000002804BF012070472DE9F041AE
:101C600043F60808C4F202080446D8F8F8030D4603
:101C700000F00F00814207D988F8F853D8F8F8032C
:101C800000F00F00A84277D12068810717D54107DF
:101C900005D5D8F8001041F4E051C8F8001001074C
:101CA00005D5D8F8001041F46041C8F80010D8F804
:101CB0000010A26821F0F0011143C8F80010C0071D
:101CC00040D1D8F8F80300F00F00854207D288F819
:101CD000F853D8F8F80300F00F00A8424CD1206860
:101CE000410707D5D8F80010E26821F4E05111430C
:101CF000C8F80010000708D5D8F80000216920F4C2
:101D0000604040EAC100C8F8000000F05BF8D8F875
:101D1000001044F6E632C1F30311C0F60002515C34
:101D200040F2280220FA01F140F20400C2F2000061
:101D30000068C2F200021160FEF73CFC0020BDE822
:101D4000F08100BF6068811E022907D258F8081C84
:101D500089015CBF0120BDE8F08111E0012807D1B5
:101D600058F8081C89035CBF0120BDE8F08107E03A
:101D700058F8081C890703D40120BDE8F08100BF92
:101D8000D8F8001021F003010843C8F80000FEF75E
:101D9000E1FB064641F28837D8F80000616800F0A0
:101DA0000C00B0EB810F8CD0FEF7D4FB801BB84247
:101DB000F2D90320BDE8F08140F22800C2F2000011
:101DC0000068704710B543F60404C4F2020460686A
:101DD000C0F3810142F20040C0F2F400DFE801F0FC
:101DE0004102082647F64000C0F27D1010BD00BF3A
:101DF000206821682368490247F64001C0F27D113E
:101E000000F03F02C3F388105CBF42F20041C0F211
:101E1000F401A1FB00010023FEF7F0F92168022282
:101E2000C1F3014102EB410119E000BF20682168C4
:101E30002368490247F64001C0F27D1100F03F02DD
:101E4000C3F388105CBF42F20041C0F2F401A1FB71
:101E500000010023FEF7D2F92168C1F30271B0FB43
:101E6000F1F010BD002804BF012070472DE9F041BA
:101E700082B00446007843F60006C007C4F20206AA
:101E80000CD0B06800F00C00042840F08980306865
:101E9000800303D56068002800F050812078800717
:101EA00023D5B06810F00C0F11D0B06800F00C0012
:101EB000082802D17068400209D5B06800F00C0013
:101EC0000C2840F09F807068400200F19B803068D1
:101ED000800703D5E068012840F03081306821692F
:101EE00020F0F80040EAC10030602078000713D4E9
:101EF000207840072AD4A569002D00F01A81B06827
:101F000000F00C00082840F0AB80012D40F0E88084
:101F1000012002B0BDE8F0816069002840F20000B5
:101F2000C4F2472000F088800121C0F8801EFEF72F
:101F300011FB0546706F8007DAD4FEF70BFB401BE0
:101F40000228F7D9032002B0BDE8F081306C5FEAC7
:101F5000C0080AD400200190306C40F080503064FA
:101F6000306C00F080500190019847F20007C4F2F5
:101F700000073868C00537D4386840F4807038608E
:101F8000FEF7E8FA054600BF3868C0052CD4FEF716
:101F9000E1FA401B0228F7D9032002B0BDE8F08126
:101FA000B06800F00C00082803D1706840023FF5CB
:101FB0006EAFB06800F00C000C2803D170684002CE
:101FC0003FF565AF61683068B1F5803F07D0B1F586
:101FD000A02F40F0CB8040F480203060306840F487
:101FE00080303060CBE000BFA168306F012905D0A0
:101FF000052957D140F004003067306F40F00100F0
:10200000306759E0E068002800F09C800020C4F2AE
:10201000472001210160FEF79DFA054630688007E0
:102020003FF55CAFFEF796FA401B02284FF0030025
:10203000F4D902B0BDE8F0810021C0F8801EFEF79F
:1020400089FA0546706F80077FF552AFFEF782FA76
:10205000401B0228F6D9032002B0BDE8F08100BF82
:102060000027C4F2472700203866FEF773FA022DD6
:1020700005460BD13068800140F19280FEF76AFA84
:10208000401B02284FF00300F4D9D2E730688001EA
:102090004FD5FEF75FFA401B02284FF00300F5D939
:1020A000C7E700BF20F001003067306F002920F043
:1020B0000400306700F09880FEF74CFA054641F2C4
:1020C000883700BF306F800700F1A080FEF742FA2A
:1020D000401BB842F6D9032002B0BDE8F08100BF32
:1020E0007068E16900F480028A4227D1216A00F019
:1020F0003F028A4222D147F6C071626A0140B1EBC9
:10210000821F1BD1A16A4FF6FF73C903994300F4E4
:102110004032A1F580318A4210D1E16A00F070624C
:10212000B2EB016F0AD1216B00F0E040B0EB017F10
:1021300004D1002002B0BDE8F08100BF012002B050
:10214000BDE8F0810020C4F2472000210160FEF7C5
:1021500001FA0546306880077FF5C7AEFEF7FAF949
:10216000401B02284FF00300F4D962E720F48030CE
:1021700030603068002920F48020306050D0FEF7B5
:10218000E9F90546306880033FF588AEFEF7E2F9CD
:10219000401B6428F6D9032002B0BDE8F08100BFDF
:1021A00004F11C052FCD246B084340EA8210D903AB
:1021B0004FF6FF729143A1F5803140EA0560084374
:1021C00040EA0470706001203866FEF7C3F90446E7
:1021D00030688001ADD4FEF7BDF9001B02284FF036
:1021E0000300F5D925E700BFFEF7B4F9054641F233
:1021F000883700BF306F800708D5FEF7ABF9401B6A
:10220000B8424FF00300F5D913E700BFB8F1000F53
:102210003FF571AE306C20F0805030646BE600BF4B
:10222000FEF798F9054600BF306880037FF536AEAB
:10223000FEF790F9401B64284FF00300F4D9F8E64C
:10224000411E0020B0EB116F1CBF012070474EF201
:102250001002CEF2000251604EF62351CEF2000180
:10226000F0230B700721906011607047FEE70000BB
:1022700080B541F2305040F20801C2F20000C2F2D3
:102280000001002200F04CFD002818BFFEF77AF88C
:1022900041F2305040F22C01C2F20000C2F20001C3
:1022A00000F0A6FF002818BFFEF76CF841F230508E
:1022B00040F2D401C2F20000C2F2000100F02CFA98
:1022C000002818BFFEF75EF841F23050C2F200005D
:1022D00000F0B8FF002808BF80BDBDE88040FEF7D1
:1022E00051B80000FEE70000FEE7000041F60C00D8
:1022F000C2F20000FEF7D4BB704700007047000038
:10230000FEF72EB9F0B593B006AC20463421FDF7A8
:10231000ADFF002543F640000595CDE90355CDE915
:1023200001550095C4F202000168012241F080517C
:1023300001600068022600F080500090009847F28B
:1023400000000095C4F2000001680F2762F38F318E
:102350000160006800F44040009000984FF4803025
:1023600007904FF480000D909020CDE90F060520D6
:10237000CDE91106204606920C960E97FFF772FDE6
:1023800010B172B6FEE700BF4FF4C05004904FF496
:102390008050059001A80321CDE901760395FFF750
:1023A00059FC18B172B600BFFEE700BF13B0F0BD14
:1023B0004EF68850CEF20000016841F470010160D1
:1023C00070470000D0F8D42200EB820CDCF8C03259
:1023D000002B04BF03207047B0B501F00F0404EBDD
:1023E000840200EB820E5EF8182F5AB1D0F8C85262
:1023F00004EBC40405EB8404E469B2FBF4F505FBCB
:1024000014229AB10020C3F81402DCF8C422D2F8D6
:1024100010C0BCF1000F08BFB0BDD3F808020A46D7
:1024200003F50471E0470020B0BD00BF0022002387
:10243000CEF8002000F0BEFE0020B0BDB0B5D0F850
:10244000D42200EB8202D2F8C0529DB1044600F0C3
:1024500049FDD4F8D412C5F80C0204EB8101D1F87F
:10246000C412D5F80402CA6805F50371904700202C
:10247000B0BD00BF0320B0BD70B58121044600F09F
:1024800077FC002520460121258700F071FC2046BD
:102490008221A4F8785100F06BFCD4F8D402E564F2
:1024A00004F5307656F8201089B104EB8000D0F89E
:1024B000C40240688047D4F8D40256F8200001F0E6
:1024C00069F9D4F8D40246F82050C4F8BC52002070
:1024D00070BD000010B5D0F8D41200EB8100D0F828
:1024E000C0428CB1D0F8C41259B194F80002FF2850
:1024F00007D08B6894F8012221469847FF2084F882
:102500000002002010BD00BF032010BD014640F2B4
:10251000A8000A22C2F200000A807047F0B581B01C
:1025200040F26407C2F2000704463846822100F0F8
:1025300035FB06463846012100F030FB054638469B
:10254000812100F02BFB002E1CBF1021B171002D4A
:102550001CBF4021A98000281CBF4021818043214D
:1025600040F26400C2F20000218001B0F0BD000022
:10257000F0B581B040F26407C2F200070446384665
:10258000822100F00BFB06463846012100F006FBD5
:1025900005463846812100F001FB002E1CBF1021AA
:1025A000B171002D1CBF4FF40071A98000281CBF21
:1025B0004FF400718180432140F26400C2F20000B8
:1025C000218001B0F0BD0000F0B581B040F2640799
:1025D000C2F2000704463846822100F0DFFA0646C0
:1025E0003846012100F0DAFA05463846812100F02C
:1025F000D5FA002E1CBF1021B171002D1CBF402147
:10260000A98000281CBF40218180432140F2640042
:10261000C2F20000218001B0F0BD00002DE9F041C0
:1026200004464FF4077001F0B7F8002850D04FF47B
:1026300007710546FDF71AFED4F8D402402704EBD3
:102640008000C0F8C052207CC4F8BC52002808BFEB
:102650004FF400772046812102223B46022600F0FB
:10266000BFFC4FF001082046012102223B46A4F89E
:10267000388000F0B5FC1020A4F84E0020468221DE
:1026800003220823A4F8788100F0AAFCD4F8D4022D
:102690000027C5F8047204EB8000D0F8C402A4F847
:1026A0004C8000688047C5F81472C5F81872D5F8D8
:1026B000042252B1207C01210028204614BF40236F
:1026C0004FF4007300F0A0FC00263046BDE8F08116
:1026D000D4F8D402002104EB8000C0F8C01202201C
:1026E000BDE8F081D0F8D41200EB8101D1F8C0121E
:1026F000002904BF0320704780B590F810C0D1F8BE
:10270000042240230121BCF1000F08BF4FF40073E5
:1027100000F07AFC002080BD00290FBF0320D0F814
:10272000D42200EB8200C0F8C41218BF002070470A
:10273000D0F8D42200EB8200D0F8C00200280EBFEF
:102740000320C0F80412002070470000D0F8D432F3
:1027500000EB8300D0F8C00200280FBF0320C0F8B0
:102760000812C0F81022002070470000F0B581B0B8
:10277000D0F8D42200EB8203D3F8C0420022002C10
:102780008DF80320ADF8002060D00D7815F06002C0
:1027900018D0202A58D1CA88002A29D06DB2B5F1A4
:1027A000FF3F2FDD4978402A84F80012214628BFD8
:1027B000402284F8012200F099F80024204601B05C
:1027C000F0BD00BF4A780B2A3ED80024DFE802F0B3
:1027D00008063C3C3C3C3C3C3C3C2A38EEE700BF15
:1027E00090F89C22032A2FD16946022221E000BFE3
:1027F000D3F8C40200228368487800249847204612
:1028000001B0F0BDD3F8C43206469D684B780F4640
:1028100018462146A847FA883046072A28BF0722CB
:10282000214606E090F89C22032A0DD10DF1030108
:10283000012200F075F80024204601B0F0BD00BF71
:1028400090F89C22032AB9D000F044F803242046D3
:1028500001B0F0BDD0F8D41200EB8101D1F8C02254
:10286000002A04BF03207047D2F8141200294FF049
:10287000010101D00846704780B5C2F81412D2F8A1
:102880001032D2F808228121C36200F093FC0021AB
:10289000BDE880400846704780B5D0F8B82252683D
:1028A0009047002818BF032080BD0000002070471B
:1028B0000020704780B513460A46002100F0A4FBB3
:1028C000002080BD80B513460A46002100F072FC4E
:1028D000002080BD10B58021044600F039FC204660
:1028E0000021BDE8104000F033BC000080B5134665
:1028F0000A460321C0F894120021C0E9563300F0C3
:1029000083FB002080BD000080B50521C0F8941233
:1029100000210022002300F077FB002080BD000092
:1029200080B513460A460221C0F894120021C0E97E
:10293000063300F03FFC002080BD000080B504217C
:10294000C0F8941200210022002300F033FC002084
:1029500080BD000010B540F20C14C2F200040A461B
:1029600002A0214600F05CF9204610BD43444320FC
:10297000436F6E666967000040F2C0001222C2F227
:1029800000000A807047000010B540F20C14C2F23B
:1029900000040A4602A0214600F042F9204610BD7C
:1029A00043444320496E74657266616365000000AC
:1029B00040F2E8000422C2F200000A8070470000E2
:1029C00010B540F20C14C2F200040A4602A02146DF
:1029D00000F026F9204610BD53544D6963726F65AF
:1029E0006C656374726F6E696373000010B540F2BA
:1029F0000C14C2F200040A4602A0214600F010F9AD
:102A0000204610BD53544D3332205669727475619F
:102A10006C20436F6D506F727400000047F61020F9
:102A2000C1F6FF70026883684FF01A0C9B18A1F87A
:102A300000C000F0A680B0B54FF0370C1A0F0CEBB9
:102A400013714068B3F1204F38BF02F1300140F2FA
:102A5000EC02C2F20002917019014FF0000E0CEB73
:102A6000117582F803E0C3F30364B1F1204F38BF5E
:102A700004F13005190215710CEB117582F805E0AF
:102A8000C3F30354B1F1204F38BF04F130051903EB
:102A900095710CEB117582F807E0C3F30344B1F1B3
:102AA000204F38BF04F13005190415720CEB117575
:102AB00082F809E0C3F30334B1F1204F38BF04F1C9
:102AC0003005190595720CEB117582F80BE0C3F314
:102AD0000324B1F1204F38BF04F1300519061573F6
:102AE000C3F303140CEB1175B1F1204F4FEA0371DE
:102AF00003F00F0382F80DE038BF04F1300503F155
:102B00003704957382F80FE0B1F1204F38BF03F11D
:102B10003004010F0CEB1073147482F811E0B0F163
:102B2000204F38BF01F1300301010CEB1174937495
:102B300082F813E0C0F30363B1F1204F38BF03F113
:102B4000300401021475C0F303530CEB1174B1F19E
:102B5000204F4FEA003182F815E038BF03F130040E
:102B60000CEB1173947582F817E0C0F30340B1F1D8
:102B7000204F38BF00F13003137682F819E0BDE82A
:102B8000B04040F2EC00C2F20000704740F2B400E6
:102B90000C22C2F200000A8070470000B0F802C0A8
:102BA00003789C459CBF0020704780B508E000BFBB
:102BB00082788A4208BF80BD73449AB262452DD2A2
:102BC00090F800E070444278052A02D182788A4267
:102BD00025D073449AB2624520D290F800E0704448
:102BE0004278052A02D182788A4218D073449AB278
:102BF000624513D290F800E070444278052A02D171
:102C000082788A420BD073449AB2624506D290F819
:102C100000E070444278052ACAD0CDE7002080BD8C
:102C2000002808BF704710B503783BB300F1020ECF
:102C3000F44600BF1CF8013C5BB19CF8003043B186
:102C40009CF801302BB19CF802300CF1040C002BE5
:102C5000F0D14FF0000C00BF1EF8013C93B19EF87C
:102C600000309BB19EF80130A3B19EF802300CF108
:102C7000040C002B0EF1040EEED10DE04FF0000C11
:102C80000AE000BF4CF0010C06E000BF4CF0020C63
:102C900002E000BF4CF0030C5FFA8CFC022303EB54
:102CA0004C03138003220B704A700378A3B30230E5
:102CB00002224FF0000C00BF5FFA82FE51FA82F44C
:102CC00001F80E3084F801C010F8013C23B3941CC5
:102CD0005FFA84FE51FA84F401F80E3084F801C0E2
:102CE0000378CBB1141D5FFA84FE51FA84F401F825
:102CF0000E3084F801C0437873B1941D5FFA84FEEE
:102D000051FA84F401F80E3084F801C08378083257
:102D1000002B00F10400CFD1BDE810407047000047
:102D2000002804BF032070470023C0F8B832C0F861
:102D3000C4320029C0F8D03218BFC0F8B412012143
:102D400080F89C12027000F0D1B8000080B5D0F875
:102D5000C802FDF7B9FD40F20032C100C0F20132F5
:102D600022FA01F1032888BF0321C8B280BD000008
:102D700080B5D0F8C802FDF77FFD40F20032C100F7
:102D8000C0F2013222FA01F1032888BF0321C8B240
:102D900080BD0000B0B589B190F89C22032A52D1C1
:102DA000D0F8B8225269002A4DD00023C0F8D4329E
:102DB0009047002808BF0020B0BD00BFD0F8941293
:102DC000022939D1D0E9071399420DD9CB1A1146FE
:102DD0001A46C3610446FFF775FD20460021002214
:102DE000002300F011F926E010D182698A420DD348
:102DF000D0F898128A4209D2002100220446002508
:102E0000FFF760FDC4F89852E7E700BF90F89C1206
:102E1000032909D1D0F8B812C96829B10022C0F835
:102E2000D4220446884720468021044600F090F9C9
:102E30002046FFF769FD204690F8A01200291CBF2C
:102E4000002180F8A0120020B0BD000010B579B1BB
:102E500090F89C22032A1DD1D0F8B8229269CAB1F9
:102E60000023C0F8D4329047002808BF002010BDCE
:102E7000D0F8941203290DD1D0E9571399420BD9F8
:102E8000C91AC0F85C11994238BF0B4611461A4660
:102E9000FFF710FD002010BD90F89C12032909D106
:102EA000D0F8B812096929B10022C0F8D42204462A
:102EB00088472046FFF742FD002010BD00207047E4
:102EC000012180F89C12D0F8B812002904BF00201C
:102ED000704780B54A6801799047002818BF0320E1
:102EE00080BD0000D0F8C802FDF71EBD017809B111
:102EF0000020704710B541F60C01C2F20001C1F884
:102F0000E004C0F8C8124FF0A04008600620087125
:102F10004FF40070C8800220C1F809000020C88169
:102F20000846FEF76FFA002818BFFDF72BFA41F6A6
:102F30000C04C2F2000420468021FDF713FC204659
:102F400000214022FDF712FC204601218022FDF7DE
:102F50000DFCBDE81040002070470000D0F8C8020A
:102F600001F07F034AB203EBC30301EBC10100EBA5
:102F7000830300EB810000F25620002A48BF03F1D2
:102F80001600007870470000D0F8D42200EB8202CF
:102F9000D2F8B822002A04BF0320704790F89C3270
:102FA000032B05D1126A1AB180B59047002080BD6D
:102FB00000207047D0F8D42200EB8202D2F8B82269
:102FC000002A04BF0320704790F89C32032B05D1E0
:102FD000526A1AB180B59047002080BD002070472A
:102FE00080B59446D0F8C8021A466346FDF7A6FCA1
:102FF00040F20032C100C0F2013222FA01F103288E
:1030000088BF0321C8B280BD80B5D0F8C802FDF7E3
:10301000CFFC40F20032C100C0F2013222FA01F1CD
:10302000032888BF0321C8B280BD0000F0B581B07D
:103030000126002580F89C62C0F894520446456041
:10304000D0F8B802C4F8A45284F8A05240B1426843
:1030500032B12046002190470546002818BF0325BD
:1030600020460021002240234027FFF7B9FF2046D9
:10307000802100224023A4F86461C4F86071FFF746
:10308000AFFFA6842846276201B0F0BD90F89C12DD
:10309000042904BF90F89D1280F89C12002070470C
:1030A00090F89C12032908D1D0F8B81229B1C96947
:1030B00019B180B58847BDE8804000207047000006
:1030C000024600201174704780B5D0F8C802FEF7A0
:1030D0004BFB40F20032C100C0F2013222FA01F192
:1030E000032888BF0321C8B280BD0000B0B500F23C
:1030F000AA240546204600F06FF80121C5F8941275
:1031000095F8AA12B5F8B03201F01F02022AC5F8EC
:1031100098320FD0012A07D092B928462146BDE83F
:10312000B04000F091B800BF28462146BDE8B0404D
:1031300000F0F8BA28462146BDE8B04000F040BA99
:1031400001F080012846BDE8B04000F001B8000061
:1031500080B5D0F8C802FDF74DFC40F20032C10046
:10316000C0F2013222FA01F1032888BF0321C8B25C
:1031700080BD000080B5D0F8C802FEF711FB40F218
:103180000032C100C0F2013222FA01F1032888BFE7
:103190000321C8B280BD0000014690F89C020422C1
:1031A00004281CBF91F89C0281F89D02002081F840
:1031B0009C22704780B5D0F8C802FDF753FC40F25E
:1031C0000032C100C0F2013222FA01F1032888BFA7
:1031D0000321C8B280BD00000A7802704A784270AC
:1031E0004A8842808A888280C988C18070470000EE
:1031F00010B582B004460020ADF80600B1B1D4F895
:10320000D42204F52E70C4F8B81250F82200C16A16
:1032100021B10DF106008847C4F8D002D4F8D802D5
:103220000130C4F8D802002002B010BD032002B063
:1032300010BD0000D0F8B822002A04BF002070475B
:1032400012681047FFF796BF0A78C2F34112531E67
:10325000022B07D2D0F8D42200EB8202D2F8B82297
:103260009268104770B582B0002A40F0CD804A784D
:10327000092A00F2C980DFE802F0052FC757C761AD
:1032800083C71B4190F89C22013A022A00F2BC80BD
:10329000C988022940F0B880D0F8A412032200297E
:1032A00008BF0122014641F80C2F02223EE100BF77
:1032B000C988012940F0A88090F89C124A1E022A71
:1032C00080F09C800024014641F8084F0122FFF75E
:1032D00027FB204602B070BD90F89C22013A022ADA
:1032E00000F2928049880024012940F09680C0F8BD
:1032F000A442FFF723FB204602B070BD498840F28C
:103300000815C2F2000511F0FE0F297054D080217B
:103310000446FFF71DFF20460021FFF719FF032495
:10332000204602B070BD00BF4A88022A62D0012A3E
:1033300040F06A800121C0F8A412FEE08A88002AC9
:1033400062D1CA88002A5FD14D887F2D5CD890F861
:103350009C12032958D0E9B280F89E520446FFF728
:10336000B3FE20462646FFF7E9FA002D14BF0220DF
:10337000012086F89C020024204602B070BD00BFE8
:103380004A884FF0FF3303EB122300260E2BADF8D3
:10339000066000F27B80DFE803F0095B4379796B1C
:1033A00077797979797979794F0000BF0D46D0F82E
:1033B000B4120A6845E000BF90F89C22032A67D047
:1033C000022A40F08D800A0600F0B78001F0010269
:1033D000C9B242600546FFF72DFF002800F0D080FB
:1033E000044628468021FFF7B3FE28460021FFF758
:1033F000AFFE6EE0497980F8A0129EE0032903D168
:10340000011D012292E000BF80210446FFF7A0FECB
:10341000204600210024FFF79BFE204602B070BD2D
:10342000D2B2052A32D8DFE802F003C1B9BDB5C572
:10343000D0F8B422526802E0D0F8B422D2692AB39C
:103440000D460446007C0DF106019047014662E0FE
:103450000D46017C0446D0F8B80200290CBF816AF1
:10346000C16A0DF1060088470146022052E000BF04
:10347000027C5AB90446D0F8B8020D46416B0DF1F2
:1034800006008847014646E0027CCAB304465CE079
:103490000A0665D0426801F001018A424DD0D1B2DE
:1034A0000446FFF7F9F92978204661602546FFF7C1
:1034B000C1FE002800F08280044628468021FFF7E4
:1034C00047FE28460021FFF743FE29792846FFF7EB
:1034D000E3F9022085F89C02204602B070BD00BFCF
:1034E00080210446FFF734FE20460021FFF730FE1E
:1034F00029782046FFF7D0F90324204602B070BD9A
:103500000446D0F8B8020D46016B0DF1060088475D
:10351000014607204870EA8872B1BDF806309BB1B9
:10352000934238BF1A46ADF806202046FFF7F8F957
:103530000024204602B070BD2046FFF7FFF90024AA
:10354000204602B070BD00BF20468021FFF700FE7C
:1035500020460021FFF7FCFD0024204602B070BD8C
:10356000022180F89C120024002144600546FFF7E8
:1035700093F92846FFF7E2F9204602B070BD00BF7C
:103580002846FFF7DBF9032085F89C02002420463B
:1035900002B070BDD0F8B422526950E7D0F8B4221E
:1035A000D2684CE7D0F8B422126948E7D0F8B422C8
:1035B000926844E7D0F8B422926940E72846BCE715
:1035C00070B50A780D46C2F341120979531E022BD9
:1035D000044607D22046FFF769F9002855D000209D
:1035E00070BD00BF9ABB687840B3012814D003288F
:1035F0002DD194F89C02032812D1688838B911F0B3
:103600007F0004D0E88810B92046FFF7A1FD2046CE
:10361000FFF794F9002070BD94F89C02032821D094
:10362000022814D1480612D02046FFF791FD20460B
:103630008021FFF78DFD002070BD00BF94F89C0233
:1036400003282FD0022808BF5FEA416050D02046EF
:103650008021FFF77DFD20460021FFF779FD002046
:1036600070BD00BF68880028B9D10E46480603D057
:1036700020463146FFF76AFB2046FFF75FF92046F8
:103680003146FFF713F90028A9D1D4F8B8028268AF
:103690000020002AC4F8D402A1D020462946BDE863
:1036A0007040104701F00F0000EB8000802904EB10
:1036B00080002CBF808CB0F864010028C7D001F0D6
:1036C0007F0000EB800004EB800000F1140501EBAB
:1036D000810004EB8000802938BF00F5AA754806F8
:1036E00016D02046FFF73AFC002818BF012010E052
:1036F00008064FF0140058BF4FF4AA70002221189A
:10370000225020460222FFF70BF9002070BD00BFB7
:1037100000202860204629460222FFF701F90020F8
:1037200070BD0000B0B50A7802F06002602A08D0CF
:1037300090F89C22013A022A03D88A8812F0FE0FE0
:103740000AD080210446FFF703FD20460021002413
:10375000FFF7FEFC2046B0BD0C46D1B20546FFF790
:10376000A7F808B10320B0BDD5F8B8128A68002ABE
:10377000F8D000212846C5F8D41221469047E188A8
:103780000446002908BF002CE4D12846FFF7D6F8EC
:103790000020B0BD7047000040F20C30C2F20000C3
:1037A0007047000010B50A784B78D0F81CE802F09A
:1037B0000F04012B4FEA421C18D10123A34043EA16
:1037C0000E03C0F81C386044D0F800391B0428D41C
:1037D0008B6800F51060097904686FF3DF2343EA12
:1037E000814144EA8252114316E000BF4FF4803217
:1037F000A24042EA0E02C0F81C286044D0F8002B18
:1038000012040ED48A6800F5306009796FF3DF2264
:10381000036842EA8141194341F0805141F400417B
:103820000160002010BD00000146D0F8000940F200
:10383000FF729043C1F80009D1F8040840F4807287
:103840000020C1F80428704782B002F47F42B2F52C
:10385000807F40F07F80826B4FF6BF7322F480320E
:103860008263C268CFF6BD731A40C260029BC26811
:10387000DBB222F44012012BC26003D1C26842F4D1
:103880008012C26000220092009A01320092009AD7
:10389000B2F1706F00F2BE800269002A21D4009A52
:1038A00001320092009AB2F1706F00F2B3800269A7
:1038B000002A16D4009A01320092009AB2F1706F79
:1038C00000F2A8800269002A0BD4009A013200920B
:1038D000009AB2F1706F00F29D800269B2F1FF3F71
:1038E000D2DC00220092026942F001020261009AD9
:1038F00001320092009AB2F1706F00F28B8002697F
:10390000D2071ED0009A01320092009AB2F1706F75
:1039100000F280800269D20713D0009A013200922F
:10392000009AB2F1706F75D80269D20709D0009A77
:1039300001320092009AB2F1706F6BD80269D2071F
:10394000D5D14FF0000C01F47F01B1F5803F40F07C
:10395000818077E0C26842F04002C260002201929A
:10396000019A01320192019AB2F1706F5AD802693C
:10397000002A1ED4019A01320192019AB2F1706FAD
:1039800050D80269002A14D4019A01320192019A96
:10399000B2F1706F46D80269002A0AD4019A013246
:1039A0000192019AB2F1706F3CD80269B2F1FF3F07
:1039B000D6DC00220192026942F001020261019A02
:1039C00001320192019AB2F1706F2BD80269D207CD
:1039D0001DD0019A01320192019AB2F1706F21D883
:1039E0000269D20713D0019A01320192019AB2F111
:1039F000706F17D80269D20709D0019A013201927B
:103A0000019AB2F1706F0DD80269D207D7D14FF089
:103A1000000C09E04FF0030C01F47F01B1F5803F89
:103A200018D10FE04FF0030C826B13F47F4F14BFDB
:103A300022F4803242F48032826301F47F01B1F5D6
:103A4000803F07D1816841F006018160816841F0C3
:103A500020018160604602B07047000010B54A78CE
:103A600091F800E047F6000CCEF6334C012A4FEAFD
:103A70004E1227D10244D2F8001902F51063B1F1B9
:103A8000FF3F4FF0010407DC196841F00061196045
:103A9000196841F0804119600EF00F01D0F83C2800
:103AA00004FA01F18A43C0F83C28D0F81C2822EA25
:103AB0000101C0F81C18186800EA0C010020196008
:103AC00010BD00BF811801F53063D1F8001B0CF167
:103AD000707CB1F1FF3F4FF48034DDDCD4E70000AF
:103AE0000146D0F8000E20F00300C1F8000ED1F816
:103AF000040820F002020020C1F8042870470000EA
:103B00000146D0F8000E20F00300C1F8000ED1F8F5
:103B1000040840F002020020C1F8042870470000A9
:103B20002DE9F04F86B0C3F3074516468E460021B7
:103B3000C0F80411C0F80811C0F80C11C0F8101139
:103B4000C0F81411C0F81811C0F81C11C0F82011E9
:103B5000C0F82411C0F82811C0F82C11C0F8301199
:103B6000C0F83411C0F83811C0F83C1125B100F18B
:103B700038014FF400120FE0D0F80418802241F011
:103B80000201C0F80418816B21F4001181630168FF
:103B900041F04001016001460B681A430A6006F4D7
:103BA0007F420021B2F5807FC0F8001E08D1D0F816
:103BB0000028B1EB1E6F09D1C0F800280AE000BF51
:103BC000D0F8001841F0030102E000BF42F001010B
:103BD000C0F800180021049104990131049104995E
:103BE000B1F1706F52D8016900291ED404990131D6
:103BF00004910499B1F1706F48D80169002914D477
:103C00000499013104910499B1F1706F3ED80169B2
:103C100000290AD40499013104910499B1F1706F1B
:103C200034D80169B1F1FF3FD6DC002104914FF493
:103C3000846101610499013104910499B1F1706FBB
:103C400024D8016989061DD504990131049104998C
:103C5000B1F1706F1AD80169890613D50499013141
:103C600004910499B1F1706F10D80169890609D5E2
:103C70000499013104910499B1F1706F06D801697A
:103C80008906D7D44FF0000A02E000BF4FF0010AC6
:103C9000002105910599013105910599B1F1706FE8
:103CA0004ED8016900291ED4059901310591059965
:103CB000B1F1706F44D80169002914D4059901311C
:103CC00005910599B1F1706F3AD8016900290AD4BC
:103CD0000599013105910599B1F1706F30D80169ED
:103CE000B1F1FF3FD6DC002105911021016105995A
:103CF000013105910599B1F1706F21D80169C906AB
:103D000020D50599013105910599B1F1706F17D84A
:103D10000169C90616D50599013105910599B1F1D9
:103D2000706F0DD80169C9060CD50599013105914F
:103D30000599B1F1706F03D80169C906D7D401E0C4
:103D40004FF0010A5FFA8EF94FF00008B9F1000F49
:103D5000C0F81088C0F81488C0F81C8800F00D81E5
:103D6000CDF80CA0CDE9015ED0F800194FF0006449
:103D700004EA11114FF67F35B9F1010BC0F80019B3
:103D8000C0F81089C0F8085974D0A9F102010329BC
:103D90000BF0030A04D20121BAF1000F40D169E00F
:103DA00000962BF0030700F5186600234FF0904CA7
:103DB0004FF67F324FF0000E56F8601C0EF1040EE5
:103DC0000CEAE17146F8601C46F8503C46F8582C65
:103DD00056F8401C77450CEAE17146F8401C46F85D
:103DE000303C46F8382C56F8201C0CEAE17146F8B5
:103DF000201C46F8103C46F8182C31680CEAE1719A
:103E000031603361B26006F18006D5D1009E0EF1BB
:103E100001014FF67F354FF00064BAF1000F29D051
:103E200000F510634F01B446DE594FF0904202EAAC
:103E3000E67603EB4111DE51664600274FF67F33ED
:103E4000BAF1010F0F618B6014D00E6ABAF1020F44
:103E500002EAE67266460A620F638B620AD00A6C57
:103E60004FF0904303EAE2720A6400220A654FF6BB
:103E70007F328A64D0F8001BBBF1000F04EA1111F5
:103E8000C0F8001B4FF00001C0F8101BC0F8085B21
:103E9000DDE9015EDDF80CA06FD0A9F10201032974
:103EA0000BF0030C04D20121BCF1000F3BD164E004
:103EB000A94600962BF0030500F5386600234FF065
:103EC00090474FF67F32002156F8604C043107EAE4
:103ED000E47446F8604C46F8503C46F8582C56F8C6
:103EE000404C8D4207EAE47446F8404C46F8303CBA
:103EF00046F8382C56F8204C07EAE47446F8204C73
:103F000046F8103C46F8182C346807EAE47434602C
:103F10003361B26006F18006D6D1009E01314D4674
:103F2000BCF1000F29D000F530634F013446DE5953
:103F30004FF0904202EAE67603EB4111DE5126464D
:103F400000274FF67F33BCF1010F0F618B6014D057
:103F50000E6ABCF1020F02EAE67226460A620F639D
:103F60008B620AD00A6C4FF0904303EAE2720A6453
:103F700000220A654FF67F328A64D0F810181EF4CA
:103F80007F0F21F48071C0F810186FF08041C0F8E5
:103F90001880416103D1816941F01001816181691B
:103FA00043F60002C8F23C02114316F47F0F816110
:103FB00003D0816941F008018161012D05D181693A
:103FC00041F0804141F004018161504606B0BDE8F6
:103FD000F08F00000146806820F0010200208A6016
:103FE00070470000D0F840C043F20B03C4F654738E
:103FF0009C4503D3D0F8003B002B1ED40023C0F80F
:10400000103BD0F8103B012943F40023C0F8103BCB
:10401000D0F8103B43F01803C0F8103BD0F8103B29
:1040200043F0C043C0F8103B07D1C0F8142BD0F8C0
:10403000001B41F08021C0F8001B002070470000E9
:104040004A780B78012A4FEA431210440ED1D0F877
:10405000002922F40012C0F80029097901F0FE01BC
:10406000022914D100F510600DE000BFD0F8002B3C
:1040700022F40012C0F8002B097901F0FE01022998
:1040800005D100F53060016841F0805101600020E9
:10409000704700000A784B785101012B084407D182
:1040A000D0F80019002900F5106107D50BE000BF1A
:1040B000D0F8001B002900F5306104D41AB108685B
:1040C00020F080400860086840F4001200200A6078
:1040D00070470000F0B54B78002591F800C04FF60E
:1040E000FF76CFF6F875012BCEF207062CD10C69BE
:1040F00000EB4C1EDEF81079002C0EF510634FD04B
:104100003D401D611D69BCF1000F05EA06051D61FA
:104110008E6800F09B80A519013DB5FBF6F50026E1
:10412000C1F6F8761F6906EAC5463E431E610E7960
:10413000012E40F098801E6926F0C0461E614FF0A7
:10414000C04606EA45758BE000EB4C13D3F8107BB4
:104150004FF6FF742F40C3F8107BD3F8107BC0F2EA
:1041600007043740C3F8107B8D680E69BCF1000F5F
:1041700003F530633CD0002E3ED07719013FB7FBEA
:10418000F5F740F2000CBEB26E430E62C1F6F87C49
:104190001D690CEAC7472F4326401F6133E000BF6B
:1041A00007EA06041C611C6944F400241C611C69B4
:1041B00025400024012A1D615DD000F510634FEAFF
:1041C0004C169F5947F004479F510F79012F33D167
:1041D000D0F80878F558FF054FF0805758BF4FF0DA
:1041E00000572F43002AF75060D00020F0BD00BFD9
:1041F000002E18BF0D610D621F6905EA04063743E2
:104200001F614FF400261F69012A47EA06071F6154
:1042100003D1CA68002A18BF5A61097901293DD122
:10422000D0F808081968C0054FF0805058BF4FF00B
:104230000050084331E000BF002CD6D00CF00F0135
:10424000012202FA01F100F6340329E0B44205D953
:104250000E614FF40025344602E000BF4FF4002504
:104260001E6935431D6125461E696FF3DF453543E1
:10427000012A1D61A1D1CA69002A18BFCEF81429EC
:10428000097901290AD1D0F80818DEF80009C90512
:104290004CBF40F0805040F0005018604FF0044197
:1042A0001868084318600020F0BD00BFA2B2002AC1
:1042B0009BD0D61C4FF0FF33C96803EB960300F583
:1042C00080504FEA0C32032BC6F381030ED3B7089C
:1042D00027F003060F68043E17504F6817508F6889
:1042E0001750CF6801F110011750F3D1002B3FF4A4
:1042F0007CAF0F68012B87503FF477AF4F68022BDC
:1043000087503FF472AF896881500020F0BD0000F3
:1043100081B0002200924A780978012A4FEA4111BF
:104320003AD100F510625058B0F1FF3F3ADC88589E
:1043300042F2107340F000608850885840F080408E
:1043400088500098013000900098984264D85058E6
:10435000B0F1FF3F26DC00980130009000989842B1
:104360005AD85058B0F1FF3F1CDC00980130009043
:104370000098984250D85058B0F1FF3F12DC009896
:10438000013000900098984246D85058B0F1FF3F55
:104390004FF00000D5DD3CE000F530625058B0F140
:1043A000FF3F03DD002001B0704700BF885842F294
:1043B000107340F000608850885840F0804088506A
:1043C0000098013000900098984225D85058B0F1DC
:1043D000FF3FE7DC009801300090009898421BD81E
:1043E0005058B0F1FF3FDDDC00980130009000989C
:1043F000984211D85058B0F1FF3FD3DC00980130FB
:1044000000900098984207D8505800284FF00000BC
:10441000D6D401B0704700BF012001B07047000042
:104420000146806840F0010200208A607047000069
:1044300081B000220092009A01320092009AB2F1FB
:10444000706F51D80269002A1ED4009A013200927E
:10445000009AB2F1706F47D80269002A14D4009A0A
:1044600001320092009AB2F1706F3DD80269002AC1
:104470000AD4009A01320092009AB2F1706F33D8D8
:104480000269B2F1FF3FD6DC89010022203100929F
:1044900001610099013100910099B1F1706F23D849
:1044A000016989061DD50099013100910099B1F18A
:1044B000706F19D80169890613D5009901310091EF
:1044C0000099B1F1706F0FD80169890609D500997B
:1044D000013100910099B1F1706F05D80169890629
:1044E000D7D4002001B07047032001B0704700000E
:1044F000D0F8080800F0060180074FF0020058BF0E
:104500000F20002908BF084670470000406900F0EE
:1045100001007047D0F81818D0F81C08084080B285
:1045200070470000D0F81818D0F81C080840000C9C
:1045300070470000D0F810C8D0F8343801F00F02EE
:1045400023FA02F2D20100EB4110D2B2D0F80809EE
:1045500042EA0C010840704700EB4111D1F8081BFA
:10456000D0F81408084070474169806908407047D6
:1045700010B5930802F0030E2CD05A1E032A03F044
:10458000030C0FD323F003034FF480528458043BF1
:104590000C6084584C6084588C608458CC6001F165
:1045A0001001F3D1BCF1000F14D04FF480528458A5
:1045B0000B46BCF1010F43F8044B05D11946BEF17F
:1045C000000F0AD11EE000BF8258BCF1020F4A6002
:1045D0001AD10831BEF1000F14D04FF48052805828
:1045E0000A46BEF1010F02F8010B04BF104610BDD0
:1045F000020ABEF1020F4A7004BF881C10BD000CF5
:1046000088700331084610BD4FF4805282588A608A
:104610000C31BEF1000FE0D1F4E70000B0B5044664
:10462000C068002920F0C040E06000F099800129B6
:1046300040F0B080E0680A2540F00050E0600A20B9
:10464000FBF7A4FE54F8140FC00740F09C800A202A
:10465000FBF79CFE2068C00740F09E800A20FBF715
:1046600095FE2068C00740F0A5800A20FBF78EFE6B
:104670002068C00740F0AC800A20FBF787FE206866
:10468000C00740F0B3800A20FBF780FE2068C00717
:1046900040F0BA800A20FBF779FE2068C00740F09E
:1046A000C1800A20FBF772FE2068C00740F0C88076
:1046B0000A20FBF76BFE2068C00740F0CF800A207D
:1046C000FBF764FE2068C00740F0D6800A20FBF7A5
:1046D0005DFE2068C00740F0DD800A20FBF756FE33
:1046E0002068C00740F0E4800A20FBF74FFE2068F6
:1046F000C00740F0EB800A20FBF748FE2068C007A7
:1047000040F0F2800A20FBF741FE2068C00740F02D
:10471000F9800A20FBF73AFE2068C00740F00081CC
:104720000A20FBF733FE2068C00740F007810A200B
:10473000FBF72CFE2068C00740F00E810A20FBF733
:1047400025FE2068C00740F016810A20FBF71EFEF8
:104750002068C825A5F1C800B0FA80F04009B0BDB6
:10476000E0680A2540F08040E0600A20FBF70EFE7A
:1047700054F8140FC00706D00A20FBF707FE206884
:10478000C00711D11425A5F1C800B0FA80F0400986
:10479000B0BD00BF0120B0BD1425A5F1C800B0FA1E
:1047A00080F04009B0BD00BF0A20FBF7EFFD206894
:1047B000C00707D11E25A5F1C800B0FA80F0400956
:1047C000B0BD00BF0A20FBF7E1FD2068C00707D19C
:1047D0002825A5F1C800B0FA80F04009B0BD00BF9F
:1047E0000A20FBF7D3FD2068C00707D13225A5F1C9
:1047F000C800B0FA80F04009B0BD00BF0A20FBF746
:10480000C5FD2068C00707D13C25A5F1C800B0FA56
:1048100080F04009B0BD00BF0A20FBF7B7FD20685B
:10482000C00707D14625A5F1C800B0FA80F04009BD
:10483000B0BD00BF0A20FBF7A9FD2068C00707D163
:104840005025A5F1C800B0FA80F04009B0BD00BF06
:104850000A20FBF79BFD2068C00707D15A25A5F168
:10486000C800B0FA80F04009B0BD00BF0A20FBF7D5
:104870008DFD2068C00707D16425A5F1C800B0FAF6
:1048800080F04009B0BD00BF0A20FBF77FFD206823
:10489000C00707D16E25A5F1C800B0FA80F0400925
:1048A000B0BD00BF0A20FBF771FD2068C00707D12B
:1048B0007825A5F1C800B0FA80F04009B0BD00BF6E
:1048C0000A20FBF763FD2068C00707D18225A5F108
:1048D000C800B0FA80F04009B0BD00BF0A20FBF765
:1048E00055FD2068C00707D18C25A5F1C800B0FA96
:1048F00080F04009B0BD00BF0A20FBF747FD2068EB
:10490000C00707D19625A5F1C800B0FA80F040098C
:10491000B0BD00BF0A20FBF739FD2068C00707D1F2
:10492000A025A5F1C800B0FA80F04009B0BD00BFD5
:104930000A20FBF72BFD2068C00707D1AA25A5F1A7
:10494000C800B0FA80F04009B0BD00BF0A20FBF7F4
:104950001DFD2068C00707D1B425A5F1C800B0FA35
:1049600080F04009B0BD00BF0A20FBF70FFD2068B2
:10497000C0077FF4EAAEBE25A5F1C800B0FA80F00A
:104980004009B0BD0246D0F8000801F07F0120F4D4
:10499000FE60C2F80008D2F8000840EA01110020C9
:1049A000C2F8001870470000022A02465FD145F2A3
:1049B0004030CFF6277043F200530844C0F20C0396
:1049C000984203D24FF4705053E000BF41F640606C
:1049D000CFF61B7044F240230844C0F20F03984204
:1049E00002D24FF4605044E0A1F5740044F68073A5
:1049F000A0F51050C0F21203984203D24FF4505069
:104A000037E000BFA1F183704DF22063A0F5E740CD
:104A1000C0F21303984203D24FF4405029E000BF84
:104A20004BF26060CFF6E5604EF260330844C0F2AE
:104A30001603984202D24FF430501AE04DF2003083
:104A4000CFF6CE6047F240730844C0F21B03984291
:104A500002D24FF420500CE045F6C030CFF6B360E0
:104A600049F2C0130844C0F2210398420AD24FF41D
:104A70001050D16821F47051D160D16801430020F9
:104A8000D1607047A1F1B77047F22053A0F558509C
:104A9000C0F23803984203D24FF40050E9E700BF58
:104AA00045F2E040CFF6596049F6E0430144C0F2D8
:104AB00041034FF4C050994238BF4FF4E050D8E75B
:104AC00010B5DDF808C0BCF1000F2CD15BB303F1C9
:104AD000030E4FF0FF3303EB9E0300F580541203E7
:104AE000032BCEF3810C0FD34FEA9E0323F0030375
:104AF0000868043B10514868105188681051C86814
:104B000001F110011051F3D1BCF1000F0BD0086876
:104B1000BCF1010FA05006D04868BCF1020FA050B4
:104B20001CBF8868A050002010BD0000FEE70000F8
:104B300082B0FBF723FDFDF7E5FB002043F63001D3
:104B40000190C4F202010A6842F080020A600A6819
:104B500002F080020192019A0090086840F0010082
:104B60000860086800F0010000900098FDF780FBE5
:104B700041F22C5509A4C2F2000500BF4FF47A702F
:104B8000FBF704FC20462821FBF7DEFB4FF47A708C
:104B9000FBF7FCFB286801302860EFE748656C6C88
:104BA0006F2066726F6D2053544D3332205553423F
:104BB000205669727475616C20434F4D20506F729E
:104BC00074210D0A0000000002E008C8121F08C18D
:104BD000002AFAD170477047002001E001C1121F7E
:104BE000002AFBD170470000000000000000010215
:104BF0000304060708090000184C00080000002004
:104C000008010000C84B0008204D000808010020E2
:104C1000F01F0000D84B0008010000001000000049
:104C200079290008B1290008C1290008ED290008E8
:104C30001D2A000855290008892900088D2B000825
:104C40000024F4001D260008792400086D270008C0
:104C500000000000D5240008C52300083D240008FA
:104C600000000000000000000000000071250008A6
:104C70001D250008C92500080D250008090243006C
:104C8000020100C0320904000001020201000524F3
:104C9000001001052401000104240202052406007D
:104CA000010705820308001009040100020A000040
:104CB00000070501024000000705810240000000D6
:104CC0000A0600020000004001000000050F0C0071
:104CD000010710020200000012010102020200405E
:104CE000830440570002010203010000FD02000896
:104CF000F9020008F502000829030008450300082E
:104D0000040309041A030000000000000000000072
:104D10000000000000000000000000000000000093
:04000005080001C529
:00000001FF
